:10000000008000102B010000F5000000F700000048
:10001000F9000000FB000000FD000000F879FFEF90
:10002000000000000000000000000000FF000000D1
:1000300001010000000000000301000005010000B4
:100040000701000007010000070100000701000090
:100050000701000007010000070100000701000080
:10006000070100000701000089050000A108000049
:10007000D90B000007010000070100000701000084
:100080000701000007010000070100000701000050
:100090000701000007010000070100000701000040
:1000A0000701000007010000070100000701000030
:1000B0000701000007010000070100000701000020
:1000C0000701000007010000070100009829000057
:1000D00000000010080000009829000000C0072060
:1000E00000000000080000100005000000C007200C
:1000F00000000000FEE7FEE7FEE7FEE7FEE7FEE7A2
:10010000FEE7FEE7FEE7FEE710B50023934203D2C9
:100110001C585C500433F9E710BD00238B4203D216
:1001200000221A500433F9E7704710B50C4C0D4B00
:100130009C4207D294E803000C3454F8042CFFF7D7
:10014000E3FFF4E7084B9C4205D294E80300FFF775
:10015000E4FF0834F6E702F0B3F902F023FAFEE711
:10016000CC000000E4000000F4000000FFFFFFFFEF
:10017000FFFFFFFFFFFFFFFFFFFFFFFFFFFFFFFF8F
:10018000FFFFFFFFFFFFFFFFFFFFFFFFFFFFFFFF7F
:10019000FFFFFFFFFFFFFFFFFFFFFFFFFFFFFFFF6F
:1001A000FFFFFFFFFFFFFFFFFFFFFFFFFFFFFFFF5F
:1001B000FFFFFFFFFFFFFFFFFFFFFFFFFFFFFFFF4F
:1001C000FFFFFFFFFFFFFFFFFFFFFFFFFFFFFFFF3F
:1001D000FFFFFFFFFFFFFFFFFFFFFFFFFFFFFFFF2F
:1001E000FFFFFFFFFFFFFFFFFFFFFFFFFFFFFFFF1F
:1001F000FFFFFFFFFFFFFFFFFFFFFFFFFFFFFFFF0F
:10020000FFFFFFFFFFFFFFFFFFFFFFFFFFFFFFFFFE
:10021000FFFFFFFFFFFFFFFFFFFFFFFFFFFFFFFFEE
:10022000FFFFFFFFFFFFFFFFFFFFFFFFFFFFFFFFDE
:10023000FFFFFFFFFFFFFFFFFFFFFFFFFFFFFFFFCE
:10024000FFFFFFFFFFFFFFFFFFFFFFFFFFFFFFFFBE
:10025000FFFFFFFFFFFFFFFFFFFFFFFFFFFFFFFFAE
:10026000FFFFFFFFFFFFFFFFFFFFFFFFFFFFFFFF9E
:10027000FFFFFFFFFFFFFFFFFFFFFFFFFFFFFFFF8E
:10028000FFFFFFFFFFFFFFFFFFFFFFFFFFFFFFFF7E
:10029000FFFFFFFFFFFFFFFFFFFFFFFFFFFFFFFF6E
:1002A000FFFFFFFFFFFFFFFFFFFFFFFFFFFFFFFF5E
:1002B000FFFFFFFFFFFFFFFFFFFFFFFFFFFFFFFF4E
:1002C000FFFFFFFFFFFFFFFFFFFFFFFFFFFFFFFF3E
:1002D000FFFFFFFFFFFFFFFFFFFFFFFFFFFFFFFF2E
:1002E000FFFFFFFFFFFFFFFFFFFFFFFFFFFFFFFF1E
:1002F000FFFFFFFFFFFFFFFFFFFFFFFFFFFFFFFF0E
:1003000080B588B000AF78607B68344A82FB031206
:100310009211DB17D31AFB617B68304A82FB031210
:100320009111DA178A1A4FF47A7101FB02F29B1AC3
:10033000BB61BB692A4A82FB03125211DB17D31A35
:100340007B61BB69264A82FB03125111DA178A1AB4
:10035000642101FB02F29B1A3B613B69214A82FB4B
:1003600003129210DB17D31AFB603A691D4B83FB13
:1003700002139910D317C91A0B469B000B445B005C
:10038000D31ABB60FB69DBB23033DBB2184601F035
:1003900087FD7B69DBB23033DBB2184601F080FDAC
:1003A000FB68DBB23033DBB2184601F079FDBB6885
:1003B000DBB23033DBB2184601F072FD202001F0D1
:1003C0006FFD202001F06CFD202001F069FD202050
:1003D00001F066FD2037BD4680BD00BFD34D6210E1
:1003E0001F85EB516766666680B582B000AF7860A6
:1003F00007E07B681B78184601F052FD7B680133EB
:100400007B607B681B78002BF3D10837BD4680BD2D
:1004100080B400AF044B00229A60044B01221A60A2
:10042000BD465DF8047B704700C0024020C0092033
:1004300080B485B000AFF860B9607A607B68002B4B
:1004400009D10D4BFA6853F82230BA68012101FA3C
:1004500002F2DA610BE07B68002B08D0064BFA68E9
:1004600053F82230BA68012101FA02F29A61143776
:10047000BD465DF8047B7047D427000080B485B08A
:1004800000AFF860B9607A607B68002B0FD0124B28
:10049000FA6853F82230104AF96852F8212011689E
:1004A000BA68012000FA02F20A431A600FE00A4B10
:1004B000FA6853F82230084AF96852F82120116886
:1004C000BA68012000FA02F2D2430A401A601437D7
:1004D000BD465DF8047B7047D427000080B485B02A
:1004E00000AF78600023FB600DE00023BB6002E0FA
:1004F000BB680133BB60BA6841F287339A42F7D9CF
:10050000FB680133FB60FA687B689A42EDD31437CD
:10051000BD465DF8047B704780B485B000AF78605D
:100520000023BB600023FB600CE0FB689B007A6843
:1005300013441B68002B02D0BB680133BB60FB680F
:100540000133FB60FB68632BEFDDBB681846143793
:10055000BD465DF8047B704780B483B000AF0346AE
:10056000FB71084B97F907205209F97901F01F0137
:10057000012000FA01F143F822100C37BD465DF866
:10058000047B704700E100E080B483B000AFB24B61
:1005900000221A60B14B5B68FB71FB79083B502B62
:1005A00000F26C8101A252F823F000BFF1060000B6
:1005B0007D0800007D0800007D0800007D08000027
:1005C0007D0800007D0800007D0800001307000082
:1005D0007D0800007D0800007D0800007D08000007
:1005E0007D0800007D0800007D0800003507000040
:1005F0007D0800007D0800007D0800007D080000E7
:100600007D0800007D0800007D080000450800000E
:100610007D0800007D0800007D0800007D080000C6
:100620007D0800007D0800007D08000067070000CD
:100630007D0800007D0800007D0800007D080000A6
:100640007D0800007D0800007D080000AD07000067
:100650007D0800007D0800007D0800007D08000086
:100660007D0800007D0800007D0800007D08000076
:100670007D0800007D0800007D0800007D08000066
:100680007D0800007D0800007D080000C107000013
:100690007D0800007D0800007D0800007D08000046
:1006A0007D0800007D0800007D080000450800006E
:1006B0007D0800007D0800007D0800007D08000026
:1006C0007D0800007D0800007D080000E5070000AF
:1006D0007D0800007D0800007D0800007D08000006
:1006E0007D0800007D0800007D0800001D08000056
:1006F0005B4B00221A60594A594B1B68581C5849D9
:1007000008605849CB5CDBB29360544B28229A6155
:10071000BBE0554B00221A60504A514B1B68581CD5
:100720004F4908604F49CB5CDBB293604B4B2822AA
:100730009A61AAE04D4B1B68012B06D1474B102252
:100740001A604B4B07221A6009E0444A444B1B686D
:10075000581C434908604349CB5CDBB293603F4B74
:1007600008229A6191E0414B1A683D4B1B689A42FE
:100770000AD93A4A3A4B1B68581C3949086039492A
:10078000CB5CDBB293600DE03A4B1B68002B03D0CF
:10079000324B20221A6005E0304B10221A60344B95
:1007A0000C221A602D4B08229A616EE02B4B10220E
:1007B0001A602F4B09221A60284B08229A6164E0C4
:1007C000294B1B685A1C2B4B1B689A4203D2234BA4
:1007D00004221A6002E0214B04229A611F4B082276
:1007E0009A6152E0204B1B68591C1F4A11601B4A3A
:1007F0009268D1B2204AD1541B4B1B685A1C1D4B26
:100800001B689A4203D2154B04221A6002E0134B74
:1008100004229A61114B08229A6136E0124B1B6840
:10082000591C114A11600D4A9268D1B2124AD15432
:100830000F4B0C221A60094B10221A60074B08223A
:100840009A6122E0054B10221A60094B08221A60B7
:10085000024B08229A6118E01400001000C0014009
:1008600038000010380400102C000010F8040010AC
:10087000080000106C03001078030010064B0A22D9
:100880001A60064B08229A6100BF00BF0C37BD46B4
:100890005DF8047B704700BF0800001000C00140F5
:1008A00080B483B000AFB54B00225A60B44B5B6894
:1008B000FB71FB79083B502B00F27C8101A252F8BE
:1008C00023F000BF090A0000B50B0000B50B0000C3
:1008D000B50B0000B50B0000B50B0000B50B000018
:1008E000B50B0000350A0000B50B0000B50B000089
:1008F000B50B0000B50B0000B50B0000B50B0000F8
:10090000B50B00005B0A0000B50B0000B50B000042
:10091000B50B0000B50B0000B50B0000B50B0000D7
:10092000B50B0000A10B0000B50B0000B50B0000DB
:10093000B50B0000B50B0000B50B0000B50B0000B7
:10094000B50B0000910A0000B50B0000B50B0000CC
:10095000B50B0000B50B0000B50B0000B50B000097
:10096000B50B0000DB0A0000B50B0000B50B000062
:10097000B50B0000B50B0000B50B0000B50B000077
:10098000B50B0000B50B0000B50B0000B50B000067
:10099000B50B0000B50B0000B50B0000B50B000057
:1009A000B50B0000EF0A0000B50B0000B50B00000E
:1009B000B50B0000B50B0000B50B0000B50B000037
:1009C000B50B0000A10B0000B50B0000B50B00003B
:1009D000B50B0000B50B0000B50B0000B50B000017
:1009E000B50B0000130B0000B50B0000B50B0000A9
:1009F000B50B0000B50B0000B50B0000B50B0000F7
:100A0000B50B00004F0B00005E4B00221A605E4BDE
:100A100000221A605A4A5B4B1B68581C59490860EF
:100A20005A490B4493F84030DBB29360544B282270
:100A30009A61C6E0544B00221A60514A514B1B6820
:100A4000581C5049086051490B4493F84030DBB2C0
:100A500093604B4B28229A61B3E04D4B5B68012BAE
:100A600006D1474B10221A604A4B07225A600BE00E
:100A7000434A444B1B68581C4249086043490B4495
:100A800093F84030DBB293603D4B08229A6198E0C6
:100A90003F4B5A683B4B1B689A420CD9384A394B3A
:100AA0001B68581C3749086038490B4493F840309C
:100AB000DBB293600DE0384B5B68002B03D0304B0A
:100AC00020221A6005E02E4B10221A60314B0C22B6
:100AD0005A602B4B08229A6173E0294B10221A604E
:100AE0002C4B09225A60264B08229A6169E0264B5A
:100AF0001B685A1C284B5B689A4203D2204B042285
:100B00001A6002E01E4B04229A611D4B08229A6172
:100B100057E01D4B1B68591C1B4A1160184A92680C
:100B2000D2B21E490B4483F84020174B1B685A1C55
:100B3000194B5B689A4203D2114B04221A6002E0FF
:100B40000F4B04229A610E4B08229A6139E00E4B3A
:100B50001B68591C0C4A1160094A9268D2B20F49AD
:100B60000B4483F840200B4B0C225A60044B10229C
:100B70001A60034B08229A6123E000BF14000010A2
:100B800000C005403C000010300000103804001088
:100B9000F8040010080000106C0300107803001027
:100BA0000B4B10221A600B4B08225A60084B08228C
:100BB0009A6106E0074B0A225A60054B08229A61A7
:100BC00000BF00BF0C37BD465DF8047B704700BF17
:100BD00000C005400800001080B483B000AFB34BE4
:100BE00000229A60B24B5B68FB71FB79083B502B8B
:100BF00000F2788101A252F823F000BF410D0000FD
:100C0000E50E0000E50E0000E50E0000E50E000018
:100C1000E50E0000E50E0000E50E0000670D000087
:100C2000E50E0000E50E0000E50E0000E50E0000F8
:100C3000E50E0000E50E0000E50E00008D0D000041
:100C4000E50E0000E50E0000E50E0000E50E0000D8
:100C5000E50E0000E50E0000E50E0000D10E0000DC
:100C6000E50E0000E50E0000E50E0000E50E0000B8
:100C7000E50E0000E50E0000E50E0000C30D0000CB
:100C8000E50E0000E50E0000E50E0000E50E000098
:100C9000E50E0000E50E0000E50E00000D0E000060
:100CA000E50E0000E50E0000E50E0000E50E000078
:100CB000E50E0000E50E0000E50E0000E50E000068
:100CC000E50E0000E50E0000E50E0000E50E000058
:100CD000E50E0000E50E0000E50E0000210E00000C
:100CE000E50E0000E50E0000E50E0000E50E000038
:100CF000E50E0000E50E0000E50E0000D10E00003C
:100D0000E50E0000E50E0000E50E0000E50E000017
:100D1000E50E0000E50E0000E50E0000450E0000A7
:100D2000E50E0000E50E0000E50E0000E50E0000F7
:100D3000E50E0000E50E0000E50E0000810E00004B
:100D40005C4B00221A605A4A5A4B1B68581C59497E
:100D5000086059490B4493F88030DBB29360544BE0
:100D600028229A61C5E0554B00221A60504A514B27
:100D70001B68581C4F4908604F490B4493F880305A
:100D8000DBB293604A4B28229A61B2E04C4B9B68DD
:100D9000012B06D1464B10221A604A4B07229A605B
:100DA0000BE0434A434B1B68581C424908604249C8
:100DB0000B4493F88030DBB293603D4B08229A617C
:100DC00097E03F4B9A683B4B1B689A420CD9384AD4
:100DD000384B1B68581C3749086037490B4493F857
:100DE0008030DBB293600DE0374B9B68002B03D063
:100DF0002F4B20221A6005E02D4B10221A60314B38
:100E00000C229A602A4B08229A6172E0284B102229
:100E10001A602C4B09229A60254B08229A6168E0DF
:100E2000264B1B685A1C284B9B689A4203D2204BC6
:100E300004221A6002E01E4B04229A611C4B082215
:100E40009A6156E01D4B1B68591C1C4A1160184AD8
:100E50009268D2B21D490B4483F88020174B1B685F
:100E60005A1C194B9B689A4203D2114B04221A60F8
:100E700002E00F4B04229A610D4B08229A6138E080
:100E80000E4B1B68591C0D4A1160094A9268D2B278
:100E90000E490B4483F880200A4B0C229A60044BC5
:100EA00010221A60024B08229A6122E014000010FE
:100EB00000000A4040000010380400103400001008
:100EC000F8040010080000106C03001078030010F4
:100ED0000B4B10221A600B4B08229A60084B082219
:100EE0009A6106E0074B0A229A60054B08229A6134
:100EF00000BF00BF0C37BD465DF8047B704700BFE4
:100F000000000A400800001080B485B000AF78608F
:100F10000023FB60174B7A68002143F82210164B20
:100F20007A6853F8223020221A60144B7A6853F8FA
:100F30002230012B02D10123FB6013E00D4B7A68B4
:100F400053F822200E4B9A4202D90023FB6009E09D
:100F5000084B7A6853F82230591C064B7A6843F8DC
:100F60002210E2E7FB6818461437BD465DF8047BA3
:100F7000704700BF14000010E827000008000010B0
:100F8000FEFFFF0080B582B000AF78602E4B2E4A86
:100F9000D2F8C42042F40022C3F8C4207B68002B9E
:100FA0001DD12A4B294A126822F00F021A60274BE2
:100FB000264A126842F00F021A60244B234A126C30
:100FC00022F00F021A64214B204A126C42F00A02EE
:100FD0001A641E4B1D4A926E42F003029A667B68A9
:100FE000012B1DD1194B194A526822F470725A60B4
:100FF000164B164A526842F470725A60134B134AE9
:10100000526C22F470725A64104B104A526C42F4C3
:1010100020725A640D4B0D4A926E42F4C0129A66C9
:101020000B4B6C229A610A4B80225A61084B80223A
:101030001A610B20FFF790FA054B40221A6000BF9F
:101040000837BD4680BD00BF00C00F4000C0024051
:1010500000C0054080B483B000AF78601B4B7A6855
:1010600053F8223020221A60194B7A68062143F87F
:10107000221015E0174B7A6853F82220164B9A423B
:1010800005D9134B7A680B2143F822100EE0114B5F
:101090007A6853F82230591C0E4B7A6843F82210B4
:1010A0000B4B7A6853F82230062BE3D0074B7A6853
:1010B00053F8223020229A61054B7A6853F8223087
:1010C00018460C37BD465DF8047B7047E8270000E2
:1010D0000800001014000010FEFFFF0080B5ADF501
:1010E0000E7D00AF4FF4165000F078FE0023C7F8D5
:1010F00030320023C7F82C320023C7F808324FF0F3
:1011000000024FF0000307F5DC71C1E900234FF046
:1011100000024FF0000307F5E071C1E900234FF032
:1011200000024FF0000307F5D471C1E900234FF02E
:1011300000024FF0000307F5D871C1E900234FF01A
:1011400000024FF0000307F5CC71C1E900234FF016
:1011500000024FF0000307F5D071C1E900230C2312
:10116000C7F804324FF07E53C7F800320023C7F8A7
:1011700090310023C7F89431C823C7F8FC31C82345
:10118000C7F8F8310023C7F8F4310123C7F8F0316C
:10119000DC23C7F8EC31002387F8EB310023C7F8D4
:1011A000E43101F08DF9FFF733F900F091FE00F022
:1011B00017FC0020FFF7E6FE0120FFF7A5FE012047
:1011C000FFF748FF00F0F4FB00F056FC00F08EFC47
:1011D0000023C7F8E0310023C7F818320023C7F80E
:1011E000DC310023C7F8D8310023C7F814320023BC
:1011F000C7F810320023C7F8D4310023C7F80C32E7
:101200000023C7F8D0313B461A464FF4C873104646
:1012100000211A4601F0C4F94FF4165000F0DEFD2B
:101220000120FFF717FF00F0C3FBC948FFF7DCF808
:101230000A20FFF753F900F0E3FE0346C7F828320F
:1012400001F0B2F80346C7F8CC3100F0C3FF034603
:10125000C7F8C831D7F82822D7F8FC319A4262D3B0
:1012600000F074FCC7F8D001D7F8D021D7F80C32C1
:10127000D31AC7F8D431D7F81832002B05D0D7F8D5
:10128000183203F00103002B15D1B248FFF7ACF878
:10129000B148FFF7A9F8D7F81802FFF731F8AF4BBC
:1012A0001A68D7F8D4311A44AC4B1A60AC4B1B689F
:1012B000C7F834321FE0D7F81822AA4B1340002B8E
:1012C00003DA013B63F001030133012B13D1A6487C
:1012D000FFF78AF8A548FFF787F8D7F81802FFF755
:1012E0000FF89E4B1A68D7F8D431D21A9B4B1A606C
:1012F0000023C7F83432D7F8D031C7F80C329C48F5
:10130000FFF772F8954B1B681846FEF7F9FF9948EE
:10131000FFF76AF8914B5B681846FEF7F1FF9648B5
:10132000FFF762F843E2D7F82822D7F8FC319A4257
:1013300068D800F04BFC9148FFF756F8D7F82832F0
:101340001846FEF7DDFFD7F81832002B23D1D7F867
:10135000C821D7F8CC319A4204D3D7F8F431C7F872
:10136000203209E0D7F8CC21D7F8C8319A4203D30C
:10137000D7F8F031C7F820323B46D7F81822D7F813
:10138000201243F822107E48FFF72EF8D7F82002EB
:10139000FEF7B6FF13E03B46D7F81822D7F8201225
:1013A00043F82210D7F818325A1E3B4653F8223021
:1013B000002B14BF00230123DBB2C7F82032D7F87B
:1013C0002032002B14BF00230123DBB2C7F81C32EC
:1013D000624B19686B4BD7F82C2243F822105F4BF5
:1013E0005968694BD7F82C2243F82210D7F82C32D1
:1013F0000133C7F82C32D7F8200200F0CBFC634849
:10140000FEF7F2FF00F0FCFD0346C7F82832D7F8DC
:101410001C0200F0CFFC0346C7F824322FE000F096
:1014200095FBC7F8D001D7F8D021D7F80C32D31AE2
:10143000C7F8D431494B5A68D7F8D4311A44474BCE
:101440005A60D7F8D031C7F80C3200F0D9FD034606
:10145000C7F82832D7F81C0200F0ACFC0346C7F8E6
:1014600024324B48FEF7C0FF4348FEF7BDFFD7F8D4
:101470002422D7F8F8319A4200D30DE000BF374B51
:101480001A68D7F83432053B9A4205DCD7F8242293
:10149000D7F8F8319A42C2D9304B1A68D7F83432AB
:1014A000053B9A4200F35081D7F82422D7F8F8314F
:1014B0009A42C0F0498100F089FB284B1968314BF2
:1014C000D7F82C2243F82210244B59682E4BD7F81A
:1014D0002C2243F82210D7F82C320133C7F82C32D3
:1014E000D7F81C0200F056FC2A48FEF77DFF00F0FA
:1014F00087FD0346C7F82832D7F81C0200F05AFCD3
:101500000346C7F8243279E02348FEF76DFF1A48F6
:10151000FEF76AFF00F01AFBC7F8D001D7F8D02118
:10152000D7F80C32D31AC7F8D431D7F81832002BB9
:1015300005D0D7F8183203F00103002B2ED1074B4A
:101540001A68D7F8D4311A44044B1A6039E000BF46
:10155000002800000C2800001C2800006403001074
:10156000000000100100008028280000382800003A
:101570004828000050280000582800005C2800007F
:101580006C28000044000010D401001074280000F2
:101590008C280000A4280000B8280000D7F81822E2
:1015A000B24B1340002B03DA013B63F0010301331C
:1015B000012B06D1AE4B1A68D7F8D431D21AAC4BF6
:1015C0001A60D7F8D031C7F80C3200F019FD034685
:1015D000C7F82832D7F81C0200F0ECFB0346C7F826
:1015E0002432D7F82822D7F8FC319A4213D9D7F8F9
:1015F0002422D7F8F8319A420DD200BFD7F828221A
:10160000D7F8FC319A4206D3D7F82422D7F8F8311C
:101610009A427FF679AFD7F82422D7F8F8319A4268
:10162000C0F0928000F0D2FA914B1968914BD7F834
:101630002C2243F822108E4B59688F4BD7F82C225E
:1016400043F82210D7F82C320133C7F82C32D7F8E0
:101650001C0200F09FFB8948FEF7C6FE00F0D0FC9C
:101660000346C7F82832D7F81C0200F0A3FB034654
:10167000C7F8243234E08248FEF7B6FE8148FEF710
:10168000B3FE00F063FAC7F8D001D7F8D021D7F83D
:101690000C32D31AC7F8D431754B5A68D7F8D43105
:1016A000D21A734B5A60D7F8D031C7F80C3200F019
:1016B000A7FC0346C7F82832D7F81C0200F07AFBD3
:1016C0000346C7F82432D7F82822D7F8FC319A42CB
:1016D00012D9D7F82422D7F8F8319A420CD200BF99
:1016E000D7F82822D7F8FC319A4205D3D7F824221C
:1016F000D7F8F8319A42BED9D7F82822D7F8FC316A
:101700009A4205D9D7F82422D7F8F8319A421BD348
:1017100000F05CFA564B1968564BD7F82C2243F868
:101720002210534B5968544BD7F82C2243F82210FF
:10173000D7F82C320133C7F82C32D7F8200200F04A
:1017400029FB5148FEF750FE494B1A68D7F834324E
:101750009A422CDB4D48FEF747FED7F8183201338A
:10176000C7F81832D7F8200200F014FB4848FEF7FB
:101770003BFE00F0EBF9C7F8D001D7F8D021D7F83D
:101780000C32D31AC7F8D431394B5A68D7F8D43150
:101790001A44374B5A60D7F8D031C7F80C3240F6AC
:1017A000C410FEF79BFED7F8200200F0F3FAD7F83A
:1017B00030320133C7F830322E48FEF7ADFEC7F89D
:1017C000DC012D48FEF7A8FEC7F8D8013148FEF726
:1017D0000BFED7F8DC01FEF793FD2F48FEF704FE61
:1017E000D7F8D801FEF78CFD2C48FEF7FDFD00234D
:1017F000C7F814320FE01F4BD7F8142253F82230E9
:101800001846FEF77DFD2648FEF7EEFDD7F81432A8
:101810000133C7F81432D7F81422D7F8DC319A42D2
:10182000E9DB1848FEF7E0FD1E48FEF7DDFD00236A
:10183000C7F810320FE0104BD7F8102253F82230BF
:101840001846FEF75DFD1648FEF7CEFDD7F81032BC
:101850000133C7F81032D7F81022D7F8DC319A429A
:10186000E9DB0A2000F01CFBD6E400BF0100008089
:101870006403001044000010D4010010D0280000C0
:10188000E428000058280000FC280000102900006F
:1018900020290000342900004029000050290000C0
:1018A000582900005C29000080B582B000AF0246D4
:1018B0000B46FA71BB71194B00221A600BE0174BF3
:1018C0001B68174A1344002283F84020134B1B68FF
:1018D0005A1C124B1A60114B1B683F2BEFDD114B4A
:1018E00003225A60104B00225A600D4B322283F8BB
:1018F00040200B4BFA7983F84120094BBA7983F8E1
:1019000042200120FFF7A6FB0346002B01D0012354
:1019100000E0002318460837BD4680BD04050010CE
:1019200038040010F80400106C03001080B582B079
:1019300000AF02460B46FA71BB71194B00221A60C8
:101940000BE0174B1B68174A1344002283F8402012
:10195000134B1B685A1C124B1A60114B1B683F2B10
:10196000EFDD114B03225A60104B00225A600D4BE1
:101970003C2283F840200B4BFA7983F84120094B35
:10198000BA7983F842200120FFF764FB0346002B5D
:1019900001D0012300E0002318460837BD4680BD72
:1019A0000405001038040010F80400106C03001047
:1019B00080B500AF20205721FFF776FF23200821B4
:1019C000FFF772FF00201821FFF7B0FF0120202150
:1019D000FFF7ACFF02200021FFF7A8FF80BD00BF8A
:1019E00080B500AF012012210022FEF747FD0A4B0F
:1019F000094AD26842F01002DA60074B064AD26800
:101A000042F02002DA60054B044AD2F8C42042F0CA
:101A10000402C3F8C42080BD00C0024000C00F40D3
:101A200080B483B000AF124B114A526842F00102F9
:101A30005A600F4B0E4AD26842F01E02DA600C4B1D
:101A40000B4A126F42F001021A67094B084A126FE3
:101A50001A67074B9A68074BA3FB02131B097B60AD
:101A60007B6818460C37BD465DF8047B704700BFA5
:101A700000800040CDCCCCCC80B500AF0120172138
:101A80000122FEF7FBFC012015210122FEF7F6FCE6
:101A9000154B0022DA60012013210122FEF7EEFC33
:101AA000012019210122FEF7E9FC0F4B0022DA6028
:101AB00002200B210122FEF7E1FC02200C21012271
:101AC000FEF7DCFC084B00221A61002015210122E0
:101AD000FEF7D4FC002016210122FEF7CFFC024BBA
:101AE00000225A6080BD00BF00C0024080B400AF39
:101AF000134B134A126842F080721A60114B002295
:101B0000DA60114B104A126842F400221A600D4B41
:101B100000225A600A4B0A4A126842F000621A60B8
:101B2000084B0022DA60064B054A126842F0005268
:101B30001A60044B0022DA60BD465DF8047B7047F2
:101B400020C0092000C0024000C0092080B582B03A
:101B500000AF012015210122FEF76AFC01201721A8
:101B60000022FEF765FC012013210022FEF760FC35
:101B7000012019210122FEF75BFC02200C21012229
:101B8000FEF756FC02200B210022FEF751FC00203C
:101B900015210122FEF74CFC002016210022FEF741
:101BA00047FC0848FEF720FCFFF73AFF786006483C
:101BB000FEF71AFC7868FEF7A3FB7B681846083727
:101BC000BD4680BD702900008029000080B500AFAF
:101BD000012015210122FEF72BFC012017210122F3
:101BE000FEF726FC012013210122FEF721FC012033
:101BF00019210122FEF71CFC02200C210122FEF714
:101C000017FC02200B210122FEF712FC00201521F7
:101C10000122FEF70DFC002016210122FEF708FC30
:101C20000348FEF7E1FB40F6B830FEF757FC80BDF5
:101C30008829000080B500AF012013210022FEF7A3
:101C4000F7FB012019210122FEF7F2FB02200C21F3
:101C50000122FEF7EDFB02200B210022FEF7E8FB3C
:101C6000012015210122FEF7E3FB012017210122AB
:101C7000FEF7DEFB002015210122FEF7D9FB002034
:101C800016210122FEF7D4FB41F28830FEF726FC34
:101C9000012015210122FEF7CBFB01201721012293
:101CA000FEF7C6FB012013210122FEF7C1FB012034
:101CB00019210122FEF7BCFB02200C210122FEF7B4
:101CC000B7FB02200B210122FEF7B2FB00201521F9
:101CD0000122FEF7ADFB002016210122FEF7A8FB32
:101CE00080BD00BF80B500AF012015210122FEF7A5
:101CF0009FFB012017210022FEF79AFB00201521EF
:101D00000122FEF795FB002016210022FEF790FB32
:101D1000012013210122FEF78BFB01201921012252
:101D2000FEF786FB02200C210122FEF781FB022038
:101D30000B210122FEF77CFB41F27070FEF7CEFB17
:101D4000012015210122FEF773FB0120172101223A
:101D5000FEF76EFB012013210122FEF769FB012033
:101D600019210122FEF764FB02200C210122FEF75B
:101D70005FFB02200B210122FEF75AFB00201521F8
:101D80000122FEF755FB002016210122FEF750FB31
:101D900080BD00BF80B582B000AF78607B68002B4B
:101DA00002D1FFF747FF01E0FFF79CFF0837BD4670
:101DB00080BD00BF80B584B000AF78607B68012B28
:101DC00003D100F0F1FAF86002E000F003FAF860E5
:101DD000FB6818461037BD4680BD00BF80B485B093
:101DE00000AF78602A4B1B689B08FB60294B294A8F
:101DF000D2F8C42042F01002C3F8C420254B254A73
:101E0000D2F8A82122F44072C3F8A821214B214A1C
:101E1000D2F8A821C3F8A8211F4B1F4A126822F04C
:101E200040421A601C4B1C4A126842F080421A6001
:101E3000194B194A526822F003025A60164B164A8F
:101E4000526842F001025A60144B83221A73134BFA
:101E500020229A62FB68002B00DA0F331B111A460E
:101E60007B6892FBF3F3BB600C4BBA68120AD2B2E8
:101E70001A710A4BBA68D2B21A70084B03221A734D
:101E8000064B07221A721437BD465DF8047B704773
:101E90000400001000C00F4000C0024000000140DC
:101EA00080B483B000AF0346FB7100BF074B1B7DBE
:101EB000DBB203F02003002BF8D0044BFA791A7040
:101EC0000C37BD465DF8047B704700BF0000014041
:101ED00080B400AF0B4B0B4AD268DA60094B094A59
:101EE00012691A61074B074A12691A61064B064AC2
:101EF000D2F8C42042F00202C3F8C420BD465DF807
:101F0000047B704700C0024000C00F4080B483B023
:101F100000AF00237B6000237B600AE0354B5B69E8
:101F200003F08053002B03D17B6801337B6000E01A
:101F300003E07A68304B9A42F0D97A682F4B9A4284
:101F400002D14FF6FF734EE04FF0402300229A601B
:101F50004FF040234FF04022526842F002025A6094
:101F60004FF040234FF04022526822F002025A60A4
:101F70004FF040234FF04022526842F001025A6075
:101F800000237B6011E01B4B5B6903F08053002B47
:101F90000AD04FF040239A68184B9A4200D908E0C3
:101FA0007B6801337B6000E003E07A68124B9A4261
:101FB000E9D97A68114B9A4202D14FF6FF7312E0C9
:101FC0004FF040239B683B604FF040234FF040228E
:101FD00052685A603A68094B9A4202D94FF6FE732A
:101FE00001E03B685B0818460C37BD465DF8047B92
:101FF000704700BF20C00920BF270900C027090083
:1020000080B582B000AF334B324AD2F8A82142F0FB
:102010000C02C3F8A821304B2F4A126842F08062AC
:102020001A600A2000F030FA2B4B2B4A926942F0DA
:1020300080629A610F2000F027FA274B264AD26966
:1020400042F08062DA61142000F01EFA224B224A2C
:10205000126822F080521A60FFF758FF38603A6821
:102060004FF6FF739A4201D100232EE03A684FF6F3
:10207000FE739A4214D1386800F08EFB02460B467C
:10208000104619464FF00002144B00F08DFA02463C
:102090000B461046194600F03DFB03467B6013E0FB
:1020A000386800F079FB02460B46104619464FF09F
:1020B00000020A4B00F078FA02460B461046194619
:1020C00000F028FB03467B607B6818460837BD4656
:1020D00080BD00BF00C00F4020C0092000004D405F
:1020E00080B483B000AF00237B6000237B600AE0F4
:1020F000354B5B6903F48073002B03D17B6801339C
:102100007B6000E003E07A68304B9A42F0D97A684D
:102110002F4B9A4202D14FF6FF734EE04FF040230F
:1021200000229A604FF040234FF04022526842F064
:1021300002025A604FF040234FF04022526822F0D2
:1021400002025A604FF040234FF04022526842F0A2
:1021500001025A6000237B6011E01B4B5B6903F4B2
:102160008073002B0AD04FF040239A68184B9A4294
:1021700000D908E07B6801337B6000E003E07A6807
:10218000124B9A42E9D97A68114B9A4202D14FF622
:10219000FF7312E04FF040239B683B604FF04023F9
:1021A0004FF0402252685A603A68094B9A4202D96D
:1021B0004FF6FE7301E03B685B0818460C37BD46DE
:1021C0005DF8047B704700BF40C00920BF270900AD
:1021D000C027090080B582B000AF334B324AD2F835
:1021E000A82142F00C02C3F8A821304B2F4A1268F4
:1021F00042F080021A600A2000F046F92B4B2B4A6D
:10220000926942F080029A610F2000F03DF9274B5D
:10221000264AD26942F08002DA61142000F034F9D3
:10222000224B224A126822F480721A60FFF758FF8C
:1022300038603A684FF6FF739A4201D168232EE066
:102240003A684FF6FE739A4214D1386800F0A4FA47
:1022500002460B46104619464FF00002144B00F0A0
:10226000A3F902460B461046194600F053FA0346FE
:102270007B6013E0386800F08FFA02460B46104688
:1022800019464FF000020A4B00F08EF902460B4649
:102290001046194600F03EFA03467B607B681846FC
:1022A0000837BD4680BD00BF00C00F4040C00920B8
:1022B00000004D4080B483B000AF00237B6000235A
:1022C0007B600AE0354B5B6903F00203002B03D10E
:1022D0007B6801337B6000E003E07A68304B9A4210
:1022E000F0D97A682F4B9A4202D14FF6FF734EE035
:1022F0004FF0402300229A604FF040234FF04022DD
:10230000526842F002025A604FF040234FF04022E0
:10231000526822F002025A604FF040234FF04022F0
:10232000526842F001025A6000237B6011E01B4BAF
:102330005B6903F00203002B0AD04FF040239A6838
:10234000184B9A4200D908E07B6801337B6000E0BB
:1023500003E07A68124B9A42E9D97A68114B9A42A3
:1023600002D14FF6FF7312E04FF040239B683B60B1
:102370004FF040234FF0402252685A603A68094BB0
:102380009A4202D94FF6FE7301E03B685B0818469B
:102390000C37BD465DF8047B704700BF40C0092084
:1023A000BF270900C027090080B582B000AF334BBA
:1023B000324AD2F8A82142F00C02C3F8A821304BCF
:1023C0002F4A126842F001021A600A2000F05CF8FD
:1023D0002B4B2B4A926942F001029A610F2000F0C8
:1023E00053F8274B264AD26942F00102DA611420E1
:1023F00000F04AF8224B224A126822F002021A60C8
:10240000FFF758FF38603A684FF6FF739A4201D1E0
:1024100068232EE03A684FF6FE739A4214D138686A
:1024200000F0BAF902460B46104619464FF000027A
:10243000144B00F0B9F802460B461046194600F05E
:1024400069F903467B6013E0386800F0A5F902469D
:102450000B46104619464FF000020A4B00F0A4F854
:1024600002460B461046194600F054F903467B60BD
:102470007B6818460837BD4680BD00BF00C00F40CE
:1024800040C0092000004D4080B485B000AF7860A6
:102490000023FB600BE00023BB6002E0BB6801335C
:1024A000BB60BB680E2BF9DDFB680133FB60FA688B
:1024B0007B689A42EFDB1437BD465DF8047B7047BA
:1024C000344B2022C3F8A0211946D1F8A021314B6A
:1024D0005006FAD50322C3F804210022C3F8A8212C
:1024E000C3F8AC212C4A0120C3F80C01AA21C3F87F
:1024F00084205522C3F88C10C3F88C20C3F88000C8
:10250000C3F88C10C3F88C20224AD2F888305901C5
:10251000FAD50323C2F88030AA23C2F88C305523A1
:10252000C2F88C30D2F888101A4B11F0407FF9D0E5
:102530002322C3F8A420AA2155220120C3F8AC10FD
:10254000C3F8AC20C3F8A000C3F8AC10C3F8AC20AB
:10255000104AD2F8A8305B05FAD50323C2F8A030A0
:10256000AA23C2F8AC305523C2F8AC30D2F8A81078
:10257000084B11F4407FF9D0084AC3F8C420002268
:10258000C3F8C8211A6822F4704242F480421A60EB
:10259000704700BF00C00F4063000500DE872804BD
:1025A00000F002B9FEF79ABD2DE9F00FC1F30A5C05
:1025B00082B00D461F46BCF1000F5AD040F2FF7AA0
:1025C000D44556D0C3F30A58B8F1000F51D0D045C6
:1025D0004FD0410D41EAC521530D4FEAC02B41F0C8
:1025E000004143EAC723CDF800B0019143F0004B0E
:1025F0004FEAC22ADDE90001594508BF5045C8EB42
:102600000C0C87EA050468D20CF2FD3C5FEA5B0B18
:102610004FEA3A0A3423002200E0013B594508BF43
:1026200050454FEA420205D3B0EB0A0061EB0B01C3
:1026300042F00102001841EB0101202B65D0002B74
:10264000EBD1594508BF504503D3013208BF09F10A
:10265000010940F2FD718C4504F0004343D9BCF1FF
:10266000000FA4BF43F0FF4343F4E00319460020EA
:1026700026E06B0013F5001F20D87A0012F5001F2A
:102680001CD847EA0501C1F30A514FEA415CD9B1B0
:102690005C0D87EA0501640501F00045D4B1540DD5
:1026A000640564B312F5001F23D113F5001F4FF02A
:1026B00000001ABF29460020154901E014490020F6
:1026C00002B0BDE8F00F70471149604602B0BDE8A6
:1026D000F00F704729462046F2E749084FEA3000DC
:1026E0000CF2FE3C92E703EB0C5303EB090110469E
:1026F000E6E745F0FF4545F4E0010020E0E745F05E
:10270000FF4545F4E0012046DAE7914685E700BF42
:102710000000F87F10B40C0DC4F583640634FF2C60
:102720000CD901F1404000F58010B0F1804F8CBF12
:1027300000206FF000005DF8044B7047CB0243EAC5
:10274000505040F00040E0405DF8044B704700BF3F
:10275000F0B1030C0CBF000401F18071030E0CBF3B
:10276000000201F50001030F0CBF000101F580011B
:10277000830F0CBF800001F500110028ACBF4000A2
:1027800001F5801101EBE023420510461946704720
:1027900003461946704700BF10F0004118BF404281
:1027A00001F18041FFF7D4BF0346043AC0F00A802C
:1027B000C9B241EA012141EA0141043A43F8041B4C
:1027C000BFF4FBAF043200F00480013A99547FF467
:1027D000FCAF704700C0092020C0092040C009207C
:1027E00060C0092080C0092000C0014000C0054031
:1027F00000000A4000C0014000C0054000000A403F
:102800007374617274696E673A0000007472617665
:10281000657273655F693D303A200A0074726176B3
:10282000657273655F693A000A2074726176657239
:1028300073655F693D313A007472617665727365E4
:102840005F693D303A00000078795B305D3A000006
:1028500078795B315D3A00000A00000066726F6EA5
:10286000745F696E5F73746F703A0000725F6C3AE8
:10287000000000006669727374207475726E2065C2
:1028800078636563757465643A00000066726F6E04
:102890007420616674657220666972737420747541
:1028A000726E3A00326E64207475726E20657863C1
:1028B0006563757465643A007768696C6520616664
:1028C00074657220326E64207475726E00000000B0
:1028D0003372647475726E5F657865637574656470
:1028E000000000007768696C65206166746572207D
:1028F000337264207475726E3A0000003474687428
:1029000075726E5F657865637574656400000000BC
:10291000636F726E65725F72656163686564000003
:10292000636F726E65727475726E5F6578656375DC
:10293000746564000A20785F6C656E6774682000B7
:10294000200A20795F6C656E6774682000000000C3
:10295000785F6C6F633A20002C200000795F6C6F09
:10296000633A200000C0014000C0054000000A405A
:102970006D6F76696E672066726F6E743A00000044
:10298000636F756E743A000073746F705F6578657D
:1029900063757465640000000500000000E1F50542
:00000001FF
