:10000000008000102B010000F5000000F700000048
:10001000F9000000FB000000FD000000F879FFEF90
:10002000000000000000000000000000FF000000D1
:1000300001010000000000000301000005010000B4
:100040000701000007010000070100000701000090
:100050000701000007010000070100000701000080
:100060000701000007010000650600007D0900008F
:10007000B50C0000070100000701000007010000A7
:100080000701000007010000070100000701000050
:100090000701000007010000070100000701000040
:1000A0000701000007010000070100000701000030
:1000B0000701000007010000070100000701000020
:1000C00007010000070100000701000000280000F0
:1000D00000000010040000000028000000C00720FD
:1000E0000000000004000010DC01000000C0072038
:1000F00000000000FEE7FEE7FEE7FEE7FEE7FEE7A2
:10010000FEE7FEE7FEE7FEE710B50023934203D2C9
:100110001C585C500433F9E710BD00238B4203D216
:1001200000221A500433F9E7704710B50C4C0D4B00
:100130009C4207D294E803000C3454F8042CFFF7D7
:10014000E3FFF4E7084B9C4205D294E80300FFF775
:10015000E4FF0834F6E701F08BFB01F0F9FBFEE762
:10016000CC000000E4000000F4000000FFFFFFFFEF
:10017000FFFFFFFFFFFFFFFFFFFFFFFFFFFFFFFF8F
:10018000FFFFFFFFFFFFFFFFFFFFFFFFFFFFFFFF7F
:10019000FFFFFFFFFFFFFFFFFFFFFFFFFFFFFFFF6F
:1001A000FFFFFFFFFFFFFFFFFFFFFFFFFFFFFFFF5F
:1001B000FFFFFFFFFFFFFFFFFFFFFFFFFFFFFFFF4F
:1001C000FFFFFFFFFFFFFFFFFFFFFFFFFFFFFFFF3F
:1001D000FFFFFFFFFFFFFFFFFFFFFFFFFFFFFFFF2F
:1001E000FFFFFFFFFFFFFFFFFFFFFFFFFFFFFFFF1F
:1001F000FFFFFFFFFFFFFFFFFFFFFFFFFFFFFFFF0F
:10020000FFFFFFFFFFFFFFFFFFFFFFFFFFFFFFFFFE
:10021000FFFFFFFFFFFFFFFFFFFFFFFFFFFFFFFFEE
:10022000FFFFFFFFFFFFFFFFFFFFFFFFFFFFFFFFDE
:10023000FFFFFFFFFFFFFFFFFFFFFFFFFFFFFFFFCE
:10024000FFFFFFFFFFFFFFFFFFFFFFFFFFFFFFFFBE
:10025000FFFFFFFFFFFFFFFFFFFFFFFFFFFFFFFFAE
:10026000FFFFFFFFFFFFFFFFFFFFFFFFFFFFFFFF9E
:10027000FFFFFFFFFFFFFFFFFFFFFFFFFFFFFFFF8E
:10028000FFFFFFFFFFFFFFFFFFFFFFFFFFFFFFFF7E
:10029000FFFFFFFFFFFFFFFFFFFFFFFFFFFFFFFF6E
:1002A000FFFFFFFFFFFFFFFFFFFFFFFFFFFFFFFF5E
:1002B000FFFFFFFFFFFFFFFFFFFFFFFFFFFFFFFF4E
:1002C000FFFFFFFFFFFFFFFFFFFFFFFFFFFFFFFF3E
:1002D000FFFFFFFFFFFFFFFFFFFFFFFFFFFFFFFF2E
:1002E000FFFFFFFFFFFFFFFFFFFFFFFFFFFFFFFF1E
:1002F000FFFFFFFFFFFFFFFFFFFFFFFFFFFFFFFF0E
:1003000080B400AF044B00229A60044B01221A60B3
:10031000BD465DF8047B704700C0024020C0092044
:1003200080B485B000AF78600023FB600CE0002350
:10033000BB6002E0BB680133BB60BB68B3F5FA6F1A
:10034000F8D3FB680133FB60FA687B689A42EED30E
:100350001437BD465DF8047B704700BF80B588B098
:1003600000AF78607B68344A82FB03129211DB177E
:10037000D31AFB617B68304A82FB03129111DA17B2
:100380008A1A4FF47A7101FB02F29B1ABB61BB69B6
:100390002A4A82FB03125211DB17D31A7B61BB6915
:1003A000264A82FB03125111DA178A1A642101FBD3
:1003B00002F29B1A3B613B69214A82FB03129210B5
:1003C000DB17D31AFB603A691D4B83FB02139910AC
:1003D000D317C91A0B469B000B445B00D31ABB60B2
:1003E000FB69DBB23033DBB2184601F029FA7B69D6
:1003F000DBB23033DBB2184601F022FAFB68DBB225
:100400003033DBB2184601F01BFABB68DBB2303385
:10041000DBB2184601F014FA202001F011FA202076
:1004200001F00EFA202001F00BFA202001F008FA6A
:100430002037BD4680BD00BFD34D62101F85EB51F4
:100440006766666680B582B000AF786007E07B685B
:100450001B78184601F0F4F97B6801337B607B68F8
:100460001B78002BF3D10837BD4680BD80B5C6B0E0
:1004700000AF3B1D18603B1D1B68C7F814310323F8
:10048000C7F80C31D7F81431002B03D1302001F01C
:10049000D7F931E030E0D7F814212C4B1340002B72
:1004A00003DA013B63F00F030133C7F81031D7F8CB
:1004B0001031092B05DCD7F810313033C7F8103173
:1004C00004E0D7F810313733C7F81031D7F81031BE
:1004D000DAB207F10801D7F80C310B441A70D7F8DB
:1004E0001431002B00DA0F331B11C7F81431D7F881
:1004F0000C31013BC7F80C31D7F81431002BCAD1AD
:100500000023C7F808310DE007F10802D7F80831D9
:1005100013441B78184601F093F9D7F808310133DA
:10052000C7F80831D7F80831032BEDDD202001F0A2
:1005300087F9202001F084F9202001F081F92020A2
:1005400001F07EF907F58C77BD4680BD0F00008075
:1005500080B5C6B000AF3B1D18603B1D1B68C7F8D7
:1005600014310123C7F80C31D7F81431002B03D113
:10057000302001F065F92EE02DE0D7F814212C4B46
:100580001340002B03DA013B63F00F030133C7F87C
:100590001031D7F81031092B05DCD7F81031303382
:1005A000C7F8103104E0D7F810313733C7F81031ED
:1005B000D7F80C315A1CC7F80C21D7F81021D1B24A
:1005C00007F10802D154D7F81431002B00DA0F33A9
:1005D0001B11C7F81431D7F81431002BCDD1D7F83F
:1005E0000C31013BC7F808310DE007F10802D7F8DC
:1005F000083113441B78184601F022F9D7F8083166
:10060000013BC7F80831D7F80831002BEDDC20207A
:1006100001F016F9202001F013F9202001F010F963
:10062000202001F00DF907F58C77BD4680BD00BF95
:100630000F00008080B483B000AF0346FB71084B0D
:1006400097F907205209F97901F01F01012000FAFA
:1006500001F143F822100C37BD465DF8047B70476A
:1006600000E100E080B483B000AFB24B00221A601A
:10067000B14B5B68FB71FB79083B502B00F26C813E
:1006800001A252F823F000BFCD0700005909000075
:1006900059090000590900005909000059090000D2
:1006A0005909000059090000EF070000590900002E
:1006B00059090000590900005909000059090000B2
:1006C00059090000590900001108000059090000EB
:1006D0005909000059090000590900005909000092
:1006E00059090000590900002109000059090000BA
:1006F0005909000059090000590900005909000072
:100700005909000059090000430800005909000078
:100710005909000059090000590900005909000051
:100720005909000059090000890800005909000012
:100730005909000059090000590900005909000031
:100740005909000059090000590900005909000021
:100750005909000059090000590900005909000011
:1007600059090000590900009D08000059090000BE
:1007700059090000590900005909000059090000F1
:100780005909000059090000210900005909000019
:1007900059090000590900005909000059090000D1
:1007A0005909000059090000C1080000590900005A
:1007B00059090000590900005909000059090000B1
:1007C0005909000059090000F90800005B4B00229C
:1007D0001A60594A594B1B68581C584908605849B7
:1007E000CB5CDBB29360544B28229A61BBE0554B43
:1007F00000221A60504A514B1B68581C4F49086030
:100800004F49CB5CDBB293604B4B28229A61AAE044
:100810004D4B1B68012B06D1474B10221A604B4BE6
:1008200007221A6009E0444A444B1B68581C43499C
:1008300008604349CB5CDBB293603F4B08229A616E
:1008400091E0414B1A683D4B1B689A420AD93A4ADB
:100850003A4B1B68581C394908603949CB5CDBB2FC
:1008600093600DE03A4B1B68002B03D0324B2022E3
:100870001A6005E0304B10221A60344B0C221A60CB
:100880002D4B08229A616EE02B4B10221A602F4BE1
:1008900009221A60284B08229A6164E0294B1B68E0
:1008A0005A1C2B4B1B689A4203D2234B04221A601A
:1008B00002E0214B04229A611F4B08229A6152E008
:1008C000204B1B68591C1F4A11601B4A9268D1B209
:1008D000204AD1541B4B1B685A1C1D4B1B689A4263
:1008E00003D2154B04221A6002E0134B04229A61D2
:1008F000114B08229A6136E0124B1B68591C114AB1
:1009000011600D4A9268D1B2124AD1540F4B0C2299
:100910001A60094B10221A60074B08229A6122E0E4
:10092000054B10221A60094B08221A60024B08225C
:100930009A6118E01000001000C00140340000105F
:100940001001001028000010D00100100400001059
:100950004400001050000010064B0A221A60064B9B
:1009600008229A6100BF00BF0C37BD465DF8047BCA
:10097000704700BF0400001000C0014080B483B085
:1009800000AFB54B00225A60B44B5B68FB71FB793A
:10099000083B502B00F27C8101A252F823F000BFEB
:1009A000E50A0000910C0000910C0000910C000081
:1009B000910C0000910C0000910C0000910C0000C3
:1009C000110B0000910C0000910C0000910C000034
:1009D000910C0000910C0000910C0000910C0000A3
:1009E000370B0000910C0000910C0000910C0000EE
:1009F000910C0000910C0000910C0000910C000083
:100A00007D0C0000910C0000910C0000910C000086
:100A1000910C0000910C0000910C0000910C000062
:100A20006D0B0000910C0000910C0000910C000077
:100A3000910C0000910C0000910C0000910C000042
:100A4000B70B0000910C0000910C0000910C00000D
:100A5000910C0000910C0000910C0000910C000022
:100A6000910C0000910C0000910C0000910C000012
:100A7000910C0000910C0000910C0000910C000002
:100A8000CB0B0000910C0000910C0000910C0000B9
:100A9000910C0000910C0000910C0000910C0000E2
:100AA0007D0C0000910C0000910C0000910C0000E6
:100AB000910C0000910C0000910C0000910C0000C2
:100AC000EF0B0000910C0000910C0000910C000055
:100AD000910C0000910C0000910C0000910C0000A2
:100AE0002B0C00005E4B00221A605E4B00221A6045
:100AF0005A4A5B4B1B68581C594908605A490B44B9
:100B000093F84030DBB29360544B28229A61C6E0E0
:100B1000544B00221A60514A514B1B68581C5049D3
:100B2000086051490B4493F84030DBB293604B4B63
:100B300028229A61B3E04D4B5B68012B06D1474BED
:100B400010221A604A4B07225A600BE0434A444B7A
:100B50001B68581C4249086043490B4493F84030D5
:100B6000DBB293603D4B08229A6198E03F4B5A6894
:100B70003B4B1B689A420CD9384A394B1B68581CAE
:100B80003749086038490B4493F84030DBB2936032
:100B90000DE0384B5B68002B03D0304B20221A60ED
:100BA00005E02E4B10221A60314B0C225A602B4B61
:100BB00008229A6173E0294B10221A602C4B0922FB
:100BC0005A60264B08229A6169E0264B1B685A1C22
:100BD000284B5B689A4203D2204B04221A6002E041
:100BE0001E4B04229A611D4B08229A6157E01D4B4F
:100BF0001B68591C1B4A1160184A9268D2B21E49E0
:100C00000B4483F84020174B1B685A1C194B5B6838
:100C10009A4203D2114B04221A6002E00F4B0422C5
:100C20009A610E4B08229A6139E00E4B1B68591CE1
:100C30000C4A1160094A9268D2B20F490B4483F8FA
:100C400040200B4B0C225A60044B10221A60034BBD
:100C500008229A6123E000BF1000001000C0054088
:100C6000380000102C00001010010010D0010010FE
:100C70000400001044000010500000100B4B102224
:100C80001A600B4B08225A60084B08229A6106E052
:100C9000074B0A225A60054B08229A6100BF00BF29
:100CA0000C37BD465DF8047B704700BF00C00540AF
:100CB0000400001080B483B000AFB34B00229A60F0
:100CC000B24B5B68FB71FB79083B502B00F27881DB
:100CD00001A252F823F000BF1D0E0000C10F00005A
:100CE000C10F0000C10F0000C10F0000C10F0000C4
:100CF000C10F0000C10F0000430E0000C10F000033
:100D0000C10F0000C10F0000C10F0000C10F0000A3
:100D1000C10F0000C10F0000690E0000C10F0000EC
:100D2000C10F0000C10F0000C10F0000C10F000083
:100D3000C10F0000C10F0000AD0F0000C10F000087
:100D4000C10F0000C10F0000C10F0000C10F000063
:100D5000C10F0000C10F00009F0E0000C10F000076
:100D6000C10F0000C10F0000C10F0000C10F000043
:100D7000C10F0000C10F0000E90E0000C10F00000C
:100D8000C10F0000C10F0000C10F0000C10F000023
:100D9000C10F0000C10F0000C10F0000C10F000013
:100DA000C10F0000C10F0000C10F0000C10F000003
:100DB000C10F0000C10F0000FD0E0000C10F0000B8
:100DC000C10F0000C10F0000C10F0000C10F0000E3
:100DD000C10F0000C10F0000AD0F0000C10F0000E7
:100DE000C10F0000C10F0000C10F0000C10F0000C3
:100DF000C10F0000C10F0000210F0000C10F000053
:100E0000C10F0000C10F0000C10F0000C10F0000A2
:100E1000C10F0000C10F00005D0F00005C4B0022FD
:100E20001A605A4A5A4B1B68581C5949086059495C
:100E30000B4493F88030DBB29360544B28229A61C4
:100E4000C5E0554B00221A60504A514B1B68581C94
:100E50004F4908604F490B4493F88030DBB29360F0
:100E60004A4B28229A61B2E04C4B9B68012B06D179
:100E7000464B10221A604A4B07229A600BE0434A05
:100E8000434B1B68581C4249086042490B4493F885
:100E90008030DBB293603D4B08229A6197E03F4B74
:100EA0009A683B4B1B689A420CD9384A384B1B68EE
:100EB000581C3749086037490B4493F88030DBB23F
:100EC00093600DE0374B9B68002B03D02F4B202203
:100ED0001A6005E02D4B10221A60314B0C229A60EB
:100EE0002A4B08229A6172E0284B10221A602C4B80
:100EF00009229A60254B08229A6168E0264B1B68FC
:100F00005A1C284B9B689A4203D2204B04221A6039
:100F100002E01E4B04229A611C4B08229A6156E0A3
:100F20001D4B1B68591C1C4A1160184A9268D2B2AA
:100F30001D490B4483F88020174B1B685A1C194B22
:100F40009B689A4203D2114B04221A6002E00F4BB5
:100F500004229A610D4B08229A6138E00E4B1B68FF
:100F6000591C0D4A1160094A9268D2B20E490B44CD
:100F700083F880200A4B0C229A60044B10221A60DE
:100F8000024B08229A6122E01000001000000A4083
:100F90003C0000101001001030000010D0010010C3
:100FA0000400001044000010500000100B4B1022F1
:100FB0001A600B4B08229A60084B08229A6106E0DF
:100FC000074B0A229A60054B08229A6100BF00BFB6
:100FD0000C37BD465DF8047B704700BF00000A4037
:100FE0000400001080B485B000AF78600023FB607F
:100FF000174B7A68002143F82210164B7A6853F891
:10100000223020221A60144B7A6853F82230012BC8
:1010100002D10123FB6013E00D4B7A6853F82220C4
:101020000E4B9A4202D90023FB6009E0084B7A6814
:1010300053F82230591C064B7A6843F82210E2E735
:10104000FB6818461437BD465DF8047B704700BF47
:10105000100000101427000004000010FEFFFF0025
:1010600080B483B000AF78600E4B7A6853F82230BA
:1010700010221A600B4B7A6853F8223008229A61CA
:1010800000BF084B7A6853F822301B6803F0100346
:10109000002BF6D1012318460C37BD465DF8047BC2
:1010A000704700BF1427000080B582B000AF7860A1
:1010B0002E4B2E4AD2F8C42042F40022C3F8C4209A
:1010C0007B68002B1DD12A4B294A126822F00F029F
:1010D0001A60274B264A126842F00F021A60244B0E
:1010E000234A126C22F00F021A64214B204A126C20
:1010F00042F00A021A641E4B1D4A926E42F003022D
:101100009A667B68012B1DD1194B194A526822F44B
:1011100070725A60164B164A526842F470725A60E6
:10112000134B134A526C22F470725A64104B104ADB
:10113000526C42F420725A640D4B0D4A926E42F486
:10114000C0129A660B4B6C229A610A4B80225A613C
:10115000084B80221A610B20FFF76CFA054B4022E6
:101160001A6000BF0837BD4680BD00BF00C00F40F9
:1011700000C0024000C0054080B483B000AF78607A
:101180001B4B7A6853F8223020221A60194B7A6878
:10119000062143F8221015E0174B7A6853F82220F5
:1011A000164B9A4205D9134B7A680B2143F822104B
:1011B0000EE0114B7A6853F82230591C0E4B7A68B6
:1011C00043F822100B4B7A6853F82230062BE3D0F9
:1011D000074B7A6853F8223020229A61054B7A68CF
:1011E00053F8223018460C37BD465DF8047B704733
:1011F000142700000400001010000010FEFFFF0084
:10120000B0B592B000AFA84B3B6400F031FBFFF7E4
:1012100077F84FF4165000F0B1FA0020FFF744FFC2
:101220000120FFF7DFFE0120FFF7A6FF00F07EFAA6
:101230009E48FFF707F99E48FFF704F9032000F0E6
:101240002BFA03461846FFF783F9032000F024FA2F
:10125000F8639848FFF7F6F8042000F01DFA0346FB
:101260001846FFF775F9042000F016FAB8639248A3
:10127000FFF7E8F8072000F00FFA03461846FFF7DB
:1012800067F9072000F008FA78638C48FFF7DAF86E
:10129000082000F001FA03461846FFF759F9082024
:1012A00000F0FAF93863FB6B9BB21BB21B029AB2D7
:1012B000BB6B9BB21343FB858148FFF7C3F8B7F9BB
:1012C0002E301846FFF7D2F8202000F0B9FA7B6BD9
:1012D0009BB21BB21B029AB23B6B9BB21343BB8502
:1012E0007848FFF7AFF8B7F92C301846FFF7BEF88B
:1012F000202000F0A5FA7448FFF7A4F8B7F92C30C5
:10130000184601F041F804460D46B7F92E3018464C
:1013100001F03AF802460B462046294600F01CFB35
:1013200002460B46104619464FF00002674B00F08C
:10133000BFFC02460B4614461D46386C01F0AAF964
:1013400002460B462046294600F048FD02460B4661
:101350001046194600F0C8FF03467B64786C4FF0D6
:10136000000101F0B9F90346002B05D0786C58490B
:1013700001F01EF903467B647B6CBB62B86A01F026
:101380006FF903461846FEF7E9FF202000F058FAEF
:101390000A20FEF7C5FF4F48FFF754F84E48FFF705
:1013A00051F8292000F0ECF87862786AFFF7D0F85D
:1013B0004A48FFF747F8282000F0E2F83862386A18
:1013C000FFF7C6F87B6A9BB21BB2DB019AB23B6A9D
:1013D0005B109BB213439BB21BB2002B00DA0733A6
:1013E000DB10FB833E48FFF72DF8B7F91E30184697
:1013F000FFF7AEF83B48FFF725F82B2000F0C0F8C8
:10140000B861B869FFF7A4F83748FFF71BF82A203E
:1014100000F0B6F878617869FFF79AF8BB699BB27B
:101420001BB2DB019AB27B695B109BB213439BB288
:101430001BB2002B00DA0733DB109BB21BB23B61FF
:101440002A48FEF7FFFF3869FFF782F82848FEF7C1
:10145000F9FF2D2000F094F8F860F868FFF778F8AD
:101460002448FEF7EFFF2C2000F08AF8B860B86837
:10147000FFF76EF8FB689BB21BB2DB019AB2BB6848
:101480005B109BB213439BB21BB2002B00DA0733F5
:10149000DB10FB801848FEF7D5FFB7F90630184679
:1014A000FFF756F8BFE600BFD00F49402C270000D9
:1014B0003C270000442700004C2700005427000070
:1014C0005C27000068270000742700000080664049
:1014D0000000B4437C2700008C2700009427000004
:1014E0009C270000A4270000AC270000B4270000C0
:1014F000BC270000C4270000CC27000080B582B0C4
:1015000000AF02460B46FA71BB71194B00221A60FC
:101510000BE0174B1B68174A1344002283F8402046
:10152000134B1B685A1C124B1A60114B1B683F2B44
:10153000EFDD114B03225A60104B00225A600D4B15
:10154000322283F840200B4BFA7983F84120094B73
:10155000BA7983F842200120FFF70EFE0346002BE4
:1015600001D0012300E0002318460837BD4680BDA6
:10157000DC01001010010010D00100104400001028
:1015800080B582B000AF0346FB711D4B00221A608C
:1015900012E01B4B1B681B4A1344002283F84020B7
:1015A000174B1B68184A1344002283F84020144B41
:1015B0001B685A1C124B1A60114B1B683F2BE8DD4D
:1015C000124B02225A60124B01225A600D4B3222FA
:1015D00083F840200B4BFA7983F84120094B3322E2
:1015E00083F842200120FFF7C7FD0120FFF738FDF7
:1015F000054B93F84030DBB218460837BD4680BD36
:10160000DC0100101001001050000010D00100108B
:101610004400001080B582B000AF02460B46FA715C
:10162000BB71194B00221A600BE0174B1B68174A5D
:101630001344002283F84020134B1B685A1C124BA2
:101640001A60114B1B683F2BEFDD114B03225A60D0
:10165000104B00225A600D4B3C2283F840200B4B6C
:10166000FA7983F84120094BBA7983F842200120A6
:10167000FFF782FD0346002B01D0012300E0002389
:1016800018460837BD4680BDDC010010100100106F
:10169000D00100104400001080B582B000AF0346B6
:1016A000FB711D4B00221A6012E01B4B1B681B4A8A
:1016B0001344002283F84020174B1B68184A134438
:1016C000002283F84020144B1B685A1C124B1A60EE
:1016D000114B1B683F2BE8DD124B02225A60124B64
:1016E00001225A600D4B3C2283F840200B4BFA79C3
:1016F00083F84120094B3D2283F842200120FFF767
:101700003BFD0120FFF7ACFC054B93F84030DBB20A
:1017100018460837BD4680BDDC01001010010010DE
:1017200050000010D00100104400001080B500AF40
:1017300020203721FFF7E2FE21208021FFF7DEFE87
:1017400023200821FFF7DAFE24200021FFF7D6FE30
:101750002E200021FFF7D2FE26200021FFF7CEFE2B
:1017600000201821FFF756FF01202021FFF752FF2C
:1017700002200021FFF74EFF80BD00BF80B485B07E
:1017800000AF78602A4B1B689B08FB60294B294AF5
:10179000D2F8C42042F01002C3F8C420254B254AD9
:1017A000D2F8A82122F44072C3F8A821214B214A83
:1017B000D2F8A821C3F8A8211F4B1F4A126822F0B3
:1017C00040421A601C4B1C4A126842F080421A6068
:1017D000194B194A526822F003025A60164B164AF6
:1017E000526842F001025A60144B83221A73134B61
:1017F00020229A62FB68002B00DA0F331B111A4675
:101800007B6892FBF3F3BB600C4BBA68120AD2B24E
:101810001A710A4BBA68D2B21A70084B03221A73B3
:10182000064B07221A721437BD465DF8047B7047D9
:101830000000001000C00F4000C002400000014046
:1018400080B483B000AF0346FB7100BF074B1B7D24
:10185000DBB203F02003002BF8D0044BFA791A70A6
:101860000C37BD465DF8047B704700BF00000140A7
:10187000344B2022C3F8A0211946D1F8A021314BC6
:101880005006FAD50322C3F804210022C3F8A82188
:10189000C3F8AC212C4A0120C3F80C01AA21C3F8DB
:1018A00084205522C3F88C10C3F88C20C3F8800024
:1018B000C3F88C10C3F88C20224AD2F88830590122
:1018C000FAD50323C2F88030AA23C2F88C305523FE
:1018D000C2F88C30D2F888101A4B11F0407FF9D042
:1018E0002322C3F8A420AA2155220120C3F8AC105A
:1018F000C3F8AC20C3F8A000C3F8AC10C3F8AC2008
:10190000104AD2F8A8305B05FAD50323C2F8A030FC
:10191000AA23C2F8AC305523C2F8AC30D2F8A810D4
:10192000084B11F4407FF9D0084AC3F8C4200022C4
:10193000C3F8C8211A6822F4704242F480421A6047
:10194000704700BF00C00F4063000500DE87280419
:10195000FFF756BC000000002DE9F84306460F468D
:1019600014461D46104619460022002300F014FDBF
:1019700078B1304639460022002300F00DFD40B119
:101980003B4B21221A603B4B09CB03F10041BDE8E0
:10199000F8832046294600F06FF880468946304695
:1019A000394600F069F802460B464046494600F0C9
:1019B00013FDC8B132463B462046294600F00EFAD8
:1019C00000F05AF822A3D3E9002300F005FD58B136
:1019D000304639460022002300F0FEFC70B31EA101
:1019E000D1E90001BDE8F88322462B46304639464E
:1019F00000F0F4F900F050F8002206460F462046A9
:101A00002946002300F0E8FCE8B1304639460022C0
:101A1000002300F019FD40B13046394610A3D3E948
:101A2000002300F091FABDE8F883304639460CA354
:101A3000D3E9002300F09CFBBDE8F8830AA1D1E9BB
:101A40000001BDE8F88330463946BDE8F88300BFA1
:101A50002342920CA19CC73B182D4454FB21F9BF93
:101A6000182D4454FB210940182D4454FB21F93F03
:101A700040000010D827000038B50022002304469B
:101A80000D4600F0A9FC18B1204605F1004138BD13
:101A90002046294638BD00002DE9F347CDE9000175
:101AA000FFF7EAFF00227E4B04460D4600F0CCFC17
:101AB00050B122462B460020794900F08FF94FF0B3
:101AC000020A04460D4600E08246204629465CA3F1
:101AD000D3E9002300F0B8FC28B35BA3D3E90023CB
:101AE0002046294600F0E4F800226E4B00F02CFA64
:101AF00000226C4B00F028FA22462B4600F038FBFF
:101B000053A3D3E9002306460F462046294600F09A
:101B10002FFB02460B463046394600F05FF90AF1CA
:101B2000010A04460D4620462946FFF7A5FF4AA3B1
:101B3000D3E9002300F088FC00285FD022462B4622
:101B40002046294600F0B4F845A3D3E90023064611
:101B50000F4600F0ADF844A3D3E9002300F0F4F9F8
:101B600032463B4600F0A4F841A3D3E9002300F03D
:101B7000EBF932463B4600F09BF83FA3D3E9002344
:101B800000F0E2F932463B4600F092F83CA3D3E97C
:101B90000023804689463046394600F0E9FA32464D
:101BA0003B4600F085F838A3D3E9002300F0E0FAC3
:101BB00032463B4600F07CF835A3D3E9002300F021
:101BC000D7FA32463B4600F073F833A3D3E900233B
:101BD00000F0CEFA02460B464046494600F0FEF8B9
:101BE00002460B462046294600F062F802460B46A4
:101BF0002046294600F0BCFA04460D46BAF1010F12
:101C000002DD05F100431D46274B204603EBCA03C6
:101C1000D3E90023294600F0ABFA002204460D4622
:101C20000023DDE9000100F0D7FB18B1204605F1E3
:101C3000004101E02046294602B0BDE8F08700BF20
:101C400056CD9E5E1426D13F5599B0D0F56CE73F36
:101C5000AA4C58E87AB6FB3FBBBDD7D9DF7CDB3D49
:101C6000BD87B1D97ACDEABF636A8D5C3FFD204064
:101C7000CBBCE2B97F813440E21C0651A6602B4008
:101C800010C74AE1490C2E40D7A30D320ACA4D4075
:101C9000A56D0B04128A5540A995C4BC7C884440AC
:101CA0000000F03F0000E03FE0270000AFF30080BD
:101CB0002DE9F00FC1F30A5C82B00D461F46BCF15E
:101CC000000F57D040F2FF79CC4553D0C3F30A58E8
:101CD000B8F1000F4ED0C8454CD0C1F31306D10265
:101CE000540DA1FB002346F48016A6FB01ABCDE901
:101CF0000023DDF8049044EAC7241AEB09024FF0F0
:101D0000000344F0004443F10003E0FB04230021FE
:101D10001BEB030041F10001E6FB040187EA050328
:101D2000009DB1F5801FC44403F0004442EA9502CF
:101D30004AD200184FEAD27341EB0101ACF5806C36
:101D400018435200D30FC01841F1000140F2FD7357
:101D5000B2F1004F054608BF20F001059C4536D979
:101D6000BCF1000FA4BF44F0FF4444F4E00421465A
:101D700000201DE06B0087EA050213F5001F02F04A
:101D8000004212D2790011F5001F15D311F5001F82
:101D90000CD85B0D5B054BB1490D490531B142F0E3
:101DA000FF4242F4E001002002E00BD00A4900208B
:101DB00002B0BDE8F00F70471146002002B0BDE848
:101DC000F00F70477900E1E7ACF2FF3CBAE70C4353
:101DD00004EB0C512846EBE70000F87F2DE9F00FEB
:101DE000C1F30A5C82B00D461F46BCF1000F5AD009
:101DF00040F2FF7AD44556D0C3F30A58B8F1000F29
:101E000051D0D0454FD0410D41EAC521530D4FEA85
:101E1000C02B41F0004143EAC723CDF800B0019147
:101E200043F0004B4FEAC22ADDE90001594508BFE3
:101E30005045C8EB0C0C87EA050468D20CF2FD3C57
:101E40005FEA5B0B4FEA3A0A3423002200E0013BD1
:101E5000594508BF50454FEA420205D3B0EB0A008E
:101E600061EB0B0142F00102001841EB0101202B54
:101E700065D0002BEBD1594508BF504503D3013243
:101E800008BF09F1010940F2FD718C4504F00043DF
:101E900043D9BCF1000FA4BF43F0FF4343F4E00378
:101EA0001946002026E06B0013F5001F20D87A00A9
:101EB00012F5001F1CD847EA0501C1F30A514FEA89
:101EC000415CD9B15C0D87EA0501640501F000456C
:101ED000D4B1540D640564B312F5001F23D113F57A
:101EE000001F4FF000001ABF29460020154901E0ED
:101EF0001449002002B0BDE8F00F70471149604658
:101F000002B0BDE8F00F704729462046F2E74908C5
:101F10004FEA30000CF2FE3C92E703EB0C5303EB6C
:101F200009011046E6E745F0FF4545F4E0010020D1
:101F3000E0E745F0FF4545F4E0012046DAE7914649
:101F400085E700BF0000F87F2DE9F00F804682B0E2
:101F50008946CDE9008993EA010B1D460F46994653
:101F600092468846DDF800C000F1EA8099427CD2B2
:101F70000BF10049DDF800A089EA0708944689EAD8
:101F800005094FEA185222F4006140F2FF708142C5
:101F9000A2EB195300F0A5808B4200F0AF80C8F38C
:101FA0001308C9F313091F2B48F4801849F4801152
:101FB00061D8C3F1200001FA00F52AFA03F421FAEE
:101FC00003F32C43C4EB0C04A445C3EB080838BF4F
:101FD00008F1FF381AFA00F140F09C80A44618F48A
:101FE000C01F65D14FEADC70C90F41EA4C0C40EAD2
:101FF00048085CEA080300F087805FEA5831A2F1E4
:1020000002030AD14FEA1C6141EA08285FEA58310D
:10201000A3F108034FEA0C2CF4D05FEA584106D133
:102020004FEA1C71043B41EA08184FEA0C1C5FEAB6
:10203000D84106D14FEA9C71023B41EA88084FEA39
:102040008C0C5FEA185106D14FEADC71013B41EA82
:1020500048084FEA4C0CD20AB2EBD32F07BF08EB6B
:1020600003516046D107002037E00099914288D89B
:102070009F4286D17CE7352B1AD8A3F1200421FAA0
:1020800004F0C3F140032AFA04F49940C0EB0C00B9
:10209000844538BF08F1FF385FEA0A6A44EA010163
:1020A00059D041F0FF01494200F1FF3C002859D0CE
:1020B00018F4801F0AD1013A530549D04FEADC7069
:1020C000CB0F40EA480843EA4C0C4900002928F4A9
:1020D000801828DB08EB0251604602B0BDE8F00F23
:1020E00070475FEA08324FF0000027D1002B36D04E
:1020F0004146604602B0BDE8F00F704740F2FE7204
:102100009342EED8002BF3D11946184602B0BDE831
:10211000F00F7047494204F1FF3C002C7FF45FAFA1
:1021200008F1FF385BE71CF1010C08BF08F101085A
:10213000B1F1004F08BF2CF0010CCBE70B49CCE705
:1021400003F100473B4602B0BDE8F00F00F010B8C5
:1021500011051846C1E784460029A9D0A3E7034921
:102160001846BAE708F1FF38A2E700BF0000F87F81
:102170002DE9F00F804682B08946CDE9008993EAC7
:10218000010B994692468846DDF800C000F1A18017
:10219000994241D34FEA185222F4006140F2FF7392
:1021A000994248D0A2EB19538B4271D0C8F313085F
:1021B000C9F313091F2B48F4801849F4801150D833
:1021C000C3F1200001FA00F52AFA03F421FA03F31F
:1021D0000AFA00F12C4398441CEB040C28BF08F1C8
:1021E000010818F4001F31D01CF1010C08BF08F1E0
:1021F000010809B92CF0020C130503EB5803590030
:1022000011F5001F51D24FEAC878194648EA5C0020
:1022100002B0BDE8F00F70478BEA010894464FEA20
:1022200018528BEA030922F4006140F2FF739942CD
:10223000DDF800A0B6D15FEA08334FF0000046D1C8
:102240004146604602B0BDE8F00F7047002902F138
:10225000FF3231DB08EB0251604602B0BDE8F00FFF
:102260007047352BBDD8A3F1200021FA00F4C3F14B
:1022700040032AFA00F099401CEB040C28BF08F137
:10228000010801435FEA0A6A18BF41F0FF01A8E7AD
:1022900040F2FE729342CED8002BD1D108F000411B
:1022A000184602B0BDE8F00F70470132110500205A
:1022B00002B0BDE8F00F70471CF1010C08BF08F137
:1022C0000108B1F1004F08BF2CF0010CC2E705492D
:1022D000C3E703F100473B4602B0BDE8F00FFFF74C
:1022E00033BE00BF0000F87F70B421F0004505F157
:1022F000474404F57004B4F17E6F01F000460FD23C
:10230000430F05F1484543EAC505C30005EBD3700B
:10231000B3F1004F08BF20F00100304370BC70479C
:10232000002C08DB4B0013F5001F94BF46F0FF4064
:10233000024870BC70473046F0E700BF0000C07F25
:10234000F0B1030C0CBF000401F18071030E0CBF4F
:10235000000201F50001030F0CBF000101F580012F
:10236000830F0CBF800001F500110028ACBF4000B6
:1023700001F5801101EBE023420510461946704734
:1023800003461946704700BF10F0004118BF404295
:1023900001F18041FFF7D4BF4FEA410C2DE9F00174
:1023A0005CEA00080D461F4602D152EA43080FD0EE
:1023B000BD4203D0BDE8F001002070479042F9D142
:1023C000BDE8F0011CF5001F8CBF00200120704704
:1023D0000120BDE8F001704753EA010C2DE9F0013E
:1023E0000F461D460BD44FEA430C1CF5001F02D8C4
:1023F00099421CD31FD00020BDE8F00170474FEA7E
:10240000410C1CF5001FF6D84FEA430818F5001FD1
:10241000F1D85CEA000C02D158EA020812D0AF42AF
:1024200005D8E8D1904294BF00200120E4E70120C4
:10243000BDE8F001704790422CBF00200120BDE8AC
:10244000F00170474046D7E753EA010C2DE9F0014F
:102450004FEA410C0D461F4609D41CF5001F02D857
:1024600099421AD81DD00020BDE8F00170471CF534
:10247000001FF8D84FEA430818F5001FF3D85CEAAC
:10248000000C02D158EA020812D0BD4205D3EAD1AD
:1024900090422CBF00200120E6E70120BDE8F001BA
:1024A0007047904294BF00200120BDE8F0017047C2
:1024B0004046D9E790EA010210B403466BD4884243
:1024C00026D3DA0DD0B2FF28A2EBD1542BD0844210
:1024D00030D0090241F0004121FA04F01B0243F020
:1024E00000431B1A2FD45B00002B3EDB27D0B3FA2E
:1024F00083F4911E091BC905D20591EA020F56BF4C
:10250000A34002F0004001EB13205DF8044B70473C
:1025100002F1004280EA02035140DA0DD0B2FF28F6
:10252000A2EBD154D3D15A0200D124B91F485DF88F
:10253000044B70471CB118465DF8044B70470020EF
:102540005DF8044B704703F100438033D20502EB82
:1025500013201B06F0D1C4F1200411FA04F40CBFBF
:1025600020F0010000F1FF30E6E78033D00500EBFA
:1025700023201B0615D102F0FE02C4F1200411FA3B
:1025800004F40CBF20F0010000F1FF30002AD3D189
:1025900000F00040D0E701F100415DF8044B00F08D
:1025A00007B812F0FE02E8D0C6E700BF0000C07F07
:1025B00090EA010230B403464BD488423CBF80EA23
:1025C00002035140DA0DD0B2FF283AD0A2EBD15429
:1025D00084421AD0090241F0004121FA04F01B02A2
:1025E00043F00043C31815D203F100458035D005F0
:1025F00000EB15202D0606D1C4F1200411FA04F4D5
:1026000001D120F0010030BC704704BB03F0004052
:1026100030BC7047013203F58073D50505EB5320BC
:10262000DB05D2B201D0FF2AEDD1C4F1200411FAAA
:1026300004F408BF20F00100FF2A08BF284630BC80
:1026400070475A020CBF1846044830BC7047184601
:10265000D9E701F1004130BCFFF72CBF0000C07F7B
:10266000C30D000240F000429D2BC3F19E0022FAF0
:1026700000F00BD9D9B29D2909D9FF2902D1B2F1B5
:10268000004F03D11B0A03F100400138704740425C
:10269000704700BFC31013F07F6210B406D103F07F
:1026A0000043194600205DF8044B7047B2F17F6F7C
:1026B0004FEA407443F0E04305D0204603F148411F
:1026C0005DF8044B7047034A54EA033418BF1346BD
:1026D000E7E700BF0000F87F50EA010308D44B0091
:1026E000B3F17F4F0ED888422CBF002001207047E5
:1026F0004200B2F17F4F05D84A00B2F17F4F01D8B6
:10270000884201D80020704713F1004018BF012013
:10271000704700BF00C0014000C0054000000A40F3
:1027200000C0014000C0054000000A406D61676EB6
:1027300065746F6D657465723A000000585F483AC1
:1027400000000000585F4C3A00000000595F483A12
:1027500000000000595F4C3A00000000785F6D6196
:10276000675F6D3A00000000795F6D61675F6D3AE9
:1027700000000000616E676C653A0000616363658C
:102780006C65726F6D657465723A000041585F4800
:102790003A00000041585F4C3A000000585F6F72E9
:1027A000673A000041595F483A00000041595F4CC8
:1027B0003A000000595F6F72673A0000415A5F4863
:1027C0003A000000415A5F4C3A0000005A5F6F72B5
:1027D000673A000000000000FFFFFFFFFFFFEF7FF0
:1027E000000000000000000065732D3852C1E03F7A
:1027F000182D4454FB21F93F66732D3852C1F03F28
:0428000000E1F505F9
:00000001FF
