:10000000008000102B010000F5000000F700000048
:10001000F9000000FB000000FD000000F879FFEF90
:10002000000000000000000000000000FF000000D1
:1000300001010000000000000301000005010000B4
:100040000701000007010000070100000701000090
:100050000701000007010000070100000701000080
:100060000701000007010000070100000701000070
:100070000701000007010000070100000701000060
:100080000701000007010000070100000701000050
:100090000701000007010000070100000701000040
:1000A0000701000007010000070100000701000030
:1000B0000701000007010000070100000701000020
:1000C00007010000070100000701000018280000D8
:1000D00000000010040000001828000000C00720E5
:1000E00000000000040000100000000000C0072015
:1000F00000000000FEE7FEE7FEE7FEE7FEE7FEE7A2
:10010000FEE7FEE7FEE7FEE710B50023934203D2C9
:100110001C585C500433F9E710BD00238B4203D216
:1001200000221A500433F9E7704710B50C4C0D4B00
:100130009C4207D294E803000C3454F8042CFFF7D7
:10014000E3FFF4E7084B9C4205D294E80300FFF775
:10015000E4FF0834F6E702F09FF902F00FFAFEE739
:10016000CC000000E4000000F4000000FFFFFFFFEF
:10017000FFFFFFFFFFFFFFFFFFFFFFFFFFFFFFFF8F
:10018000FFFFFFFFFFFFFFFFFFFFFFFFFFFFFFFF7F
:10019000FFFFFFFFFFFFFFFFFFFFFFFFFFFFFFFF6F
:1001A000FFFFFFFFFFFFFFFFFFFFFFFFFFFFFFFF5F
:1001B000FFFFFFFFFFFFFFFFFFFFFFFFFFFFFFFF4F
:1001C000FFFFFFFFFFFFFFFFFFFFFFFFFFFFFFFF3F
:1001D000FFFFFFFFFFFFFFFFFFFFFFFFFFFFFFFF2F
:1001E000FFFFFFFFFFFFFFFFFFFFFFFFFFFFFFFF1F
:1001F000FFFFFFFFFFFFFFFFFFFFFFFFFFFFFFFF0F
:10020000FFFFFFFFFFFFFFFFFFFFFFFFFFFFFFFFFE
:10021000FFFFFFFFFFFFFFFFFFFFFFFFFFFFFFFFEE
:10022000FFFFFFFFFFFFFFFFFFFFFFFFFFFFFFFFDE
:10023000FFFFFFFFFFFFFFFFFFFFFFFFFFFFFFFFCE
:10024000FFFFFFFFFFFFFFFFFFFFFFFFFFFFFFFFBE
:10025000FFFFFFFFFFFFFFFFFFFFFFFFFFFFFFFFAE
:10026000FFFFFFFFFFFFFFFFFFFFFFFFFFFFFFFF9E
:10027000FFFFFFFFFFFFFFFFFFFFFFFFFFFFFFFF8E
:10028000FFFFFFFFFFFFFFFFFFFFFFFFFFFFFFFF7E
:10029000FFFFFFFFFFFFFFFFFFFFFFFFFFFFFFFF6E
:1002A000FFFFFFFFFFFFFFFFFFFFFFFFFFFFFFFF5E
:1002B000FFFFFFFFFFFFFFFFFFFFFFFFFFFFFFFF4E
:1002C000FFFFFFFFFFFFFFFFFFFFFFFFFFFFFFFF3E
:1002D000FFFFFFFFFFFFFFFFFFFFFFFFFFFFFFFF2E
:1002E000FFFFFFFFFFFFFFFFFFFFFFFFFFFFFFFF1E
:1002F000FFFFFFFFFFFFFFFFFFFFFFFFFFFFFFFF0E
:1003000090B5ADF5995D83B000AF07F128041C3CB2
:10031000206007F10800016007F1080104390A6054
:1003200007F10802083A1360002307F5995000F11D
:1003300004000360002307F599510B60002307F5C3
:10034000985202F11C021360002307F5985C0CF12F
:10035000180CCCF8003007F5DE631A46A0231046CF
:1003600000211A4602F008F9002307F5985000F121
:100370000400036007F54C731A46A02310460021C1
:100380001A4602F0F9F807F52A73183B1A46A0231B
:10039000104600211A4602F0EFF8002307F59651A7
:1003A0000B60002307F5975202F10C021360002343
:1003B00007F5955C0CF11C0CCCF80030002307F518
:1003C000955000F11800036007F5B473183B1A4606
:1003D000A023104600211A4602F0CEF807F1C80308
:1003E000183B1A46A023104600211A4602F0C4F812
:1003F000002307F5975101F108010B60012307F570
:10040000975202F104021360002307F5975CCCF8C1
:100410000030002307F5965000F11C000360002314
:1004200007F5965101F118010B60002307F596526C
:1004300002F114021360002307F5965C0CF1100C16
:10044000CCF80030002307F5965000F10C00036053
:10045000012307F5955101F114010B60002307F505
:10046000955202F11002136007F12803183B1A4657
:10047000A023104600211A4602F07EF8002307F55B
:10048000955C0CF10C0CCCF80030002307F596506D
:1004900000F104000360002307F5955101F1080104
:1004A0000B60002307F5955202F10402136007F573
:1004B0000273183B07F5955C0CF1140CDCF8002076
:1004C0001A60002307F5975000F11800036049E017
:1004D000002307F5975101F114010B602FE007F598
:1004E000AC6107F5975303F118031A6813469B0094
:1004F00013445B0007F5975C0CF1140CDCF800204A
:10050000134407F5975000F10400026841F82320D6
:1005100007F5975101F104010B68013307F5975274
:1005200002F10402136007F5975C0CF1140CDCF87F
:100530000030013307F5975000F11400036007F510
:10054000975101F114010B68092BC8DD07F597528B
:1005500002F118021368013307F5975C0CF1180CCF
:10056000CCF8003007F5975000F118000368092B0C
:10057000AEDD002307F5975101F104010B60AF4890
:1005800001F076FDAE4801F073FD002307F59752A8
:1005900002F11802136073E0002307F5975C0CF179
:1005A000140CCCF8003055E007F5975000F1180016
:1005B000026813469B001344DB001A4607F1280328
:1005C0001C3B1B68134407F5975101F114010A689D
:1005D00053F8221007F5F26007F5975303F114035F
:1005E0001A6807F5975C0CF1180CDCF8004013460C
:1005F000DB009B1A9B004FF48C7202FB04F2134445
:1006000003441833196007F5F26107F5975000F1BC
:100610001400026807F5975303F11803186813468E
:10062000DB009B1A9B004FF48C7202FB00F2134418
:100630000B4418331B68184601F0A6FC07F5975CBD
:100640000CF1140CDCF80030013307F5975000F181
:100650001400036007F5975101F114010B68092B91
:10066000A2DD774801F004FD07F5975202F1180268
:100670001368013307F5975C0CF1180CCCF80030C7
:1006800007F5975000F118000368092B84DD6C48CA
:1006900001F0EEFC002307F5975101F118010B6002
:1006A00054E0002307F5975202F1140213603AE078
:1006B00007F10803083B07F5975C0CF1180CDCF810
:1006C000000007F5975202F1140211681A6807F545
:1006D000995C0CF1180CDCF8003001F0E1FB0146EC
:1006E00007F5F26007F5975303F114031A6807F54D
:1006F000975C0CF1180CDCF800401346DB009B1AE9
:100700009B004FF48C7202FB04F2134403445960C3
:1007100007F5975000F114000368013307F597516E
:1007200001F114010B6007F5975202F114021368EE
:10073000092BBDDD07F5975C0CF1180CDCF80030D7
:10074000013307F5975000F11800036007F5975142
:1007500001F118010B68092BA3DD002307F597525F
:1007600002F11802136053E0002307F5975C0CF1C7
:10077000140CCCF8003038E007F1080207F1080348
:10078000043B07F5975101F11801086807F5975CDC
:100790000CF1140CDCF8001012681B6801F09CFBD3
:1007A000014607F5F26007F5975303F114031A6841
:1007B00007F5975C0CF1180CDCF800401346DB00E1
:1007C0009B1A9B004FF48C7202FB04F21344034407
:1007D0000833196007F5975000F1140003680133DE
:1007E00007F5975101F114010B6007F5975202F1DB
:1007F00014021368092BBFDD07F5975C0CF1180C88
:10080000DCF80030013307F5975000F11800036061
:1008100007F5975101F118010B68092BA4DD00239E
:1008200007F5975202F11802136074E0002307F5F0
:10083000975C0CF1140CCCF8003059E0B4250000A2
:10084000BC25000007F5F26107F5975000F1140090
:10085000026807F5975303F1180318681346DB0085
:100860009B1A9B004FF48C7202FB00F213440B4462
:100870000833196807F5F26007F5975C0CF1140C62
:10088000DCF8002007F5975303F118031C681346A2
:10089000DB009B1A9B004FF48C7202FB04F21344A2
:1008A00003445B68194407F5F26007F5975C0CF1A7
:1008B000140CDCF8002007F5975303F118031C68AB
:1008C0001346DB009B1A9B004FF48C7202FB04F270
:1008D000134403440833596007F5975C0CF1140C7A
:1008E000DCF80030013307F5975000F11400036085
:1008F00007F5975101F114010B68092BA2DD07F5EB
:10090000975202F118021368013307F5975C0CF156
:10091000180CCCF8003007F5975000F11800036868
:10092000092B83DD07F54C73184607F5955202F144
:100930001402116801F016F8A74801F099FB07F5B9
:100940004C731B68184601F01FFB07F54C735B687E
:10095000184601F019FB07F54C739B68184601F027
:1009600013FB07F54C73184607F5955303F1140371
:10097000196801F021F80A2001F09EFB964801F069
:1009800077FB002307F5965C0CF11C0CCCF80030CB
:1009900016E007F54C7307F5965000F11C0002684D
:1009A00053F82230184601F0EFFA07F5965101F19D
:1009B0001C010B68013307F5965202F11C0213600B
:1009C00007F5965C0CF11C0CDCF80030272BE0DD01
:1009D00007F54C73184607F5955202F11402116899
:1009E00000F0C0FF7C4801F043FB07F54C731B6827
:1009F000184601F0C9FA07F54C735B68184601F018
:100A0000C3FA07F54C739B68184601F0BDFA07F569
:100A10004C73184601F098FA07F59853186000F0E7
:100A200057BF6D4801F024FB6B4801F021FB6A4879
:100A300001F01EFB694801F01BFB07F5985C0CF107
:100A40001C0CDCF8000001F09FFA634801F010FB79
:100A500007F5985000F11C000368013307F5985121
:100A600001F11C010B6007F54C731A6807F5AC63C4
:100A70001046194600F0D6FF07F5985202F10C0215
:100A8000106007F54C731A6807F5AC6310461946F9
:100A900000F0F6FF07F5985303F10803186007F517
:100AA0004C73184601F050FA07F5985CCCF800003A
:100AB000012307F5975000F1180003609FE107F547
:100AC0004C7307F5975101F118010A6853F8222079
:100AD00007F5AC631046194600F0A4FF07F59552E0
:100AE000106007F54C7307F5975C0CF1180CDCF8F7
:100AF000002053F8222007F5AC631046194600F099
:100B0000BFFF07F5945101F11C01086007F5F26180
:100B100007F5945303F11C031A6807F5955CDCF89C
:100B200000001346DB009B1A9B004FF48C7202FB03
:100B300000F213440B440833596807F5F26007F5D7
:100B4000985303F108031A6807F5985C0CF10C0C34
:100B5000DCF800401346DB009B1A9B004FF48C72BC
:100B600002FB04F21344034408335B68994239DA08
:100B70001B4801F07DFA184801F07AFA07F54C732A
:100B800007F5975000F11800026853F8223007F576
:100B9000965101F104010B6007F5AC6307F596521D
:100BA00002F104021068194600F03CFF07F5985363
:100BB00003F10C03186007F5AC6307F5965C0CF1C4
:100BC000040CDCF80000194600F05AFF07F59851B4
:100BD00001F10801086006E1BC250000C025000005
:100BE000D025000007F5F26107F5945303F11C03CB
:100BF0001A6807F5955CDCF800001346DB009B1AC9
:100C00009B004FF48C7202FB00F213440B44083338
:100C1000596807F5F26007F5985303F108031A685D
:100C200007F5985C0CF10C0CDCF800401346DB0077
:100C30009B1A9B004FF48C7202FB04F21344034492
:100C400008335B68994240F0CE808F4801F010FA7B
:100C50008E4801F00DFA07F5F26107F5945000F1A6
:100C60001C00026807F5955318681346DB009B1AB1
:100C70009B004FF48C7202FB00F213440B440833C8
:100C8000196807F5F26007F5985C0CF1080CDCF8C0
:100C9000002007F5985303F10C031C681346DB0092
:100CA0009B1A9B004FF48C7202FB04F21344034422
:100CB00008331B689942C0F29680754801F0D8F954
:100CC000724801F0D5F9734801F0D2F907F5AC612B
:100CD00007F5955CDCF8002013469B0013445B008D
:100CE00007F5945000F11C000268134451F82330BA
:100CF000184601F049F9684801F0BAF907F595512D
:100D0000086801F041F9654801F0B2F907F594521D
:100D100002F11C02106801F037F9614801F0A8F9EE
:100D200007F54C7307F5975C0CF1180CDCF8002004
:100D300053F82230184601F027F95A4801F098F983
:100D4000002307F5965000F11C00036017E007F53B
:100D50004C7307F5965101F11C010A6853F82230D3
:100D6000184601F011F907F5965202F11C021368BA
:100D7000013307F5965C0CF11C0CCCF8003007F53C
:100D8000965000F11C000368272BE0DD07F54C733B
:100D900007F5975101F118010A6853F8223007F559
:100DA000965202F10402136007F5AC6307F5965CF6
:100DB0000CF1040CDCF80000194600F033FE07F5D6
:100DC000985101F10C01086007F5AC6307F59652E4
:100DD00002F104021068194600F052FE07F598531C
:100DE00003F10803186007F5975C0CF1180CDCF8A8
:100DF0000030013307F5975000F11800036007F544
:100E0000975101F118010A6807F5985CDCF8003089
:100E10009A42FFF654AE244801F02AF907F596519C
:100E200001F10401086801F0AFF8204801F020F951
:100E300007F5985202F10C021368002B38D107F520
:100E4000985C0CF1080CDCF80030002B30D1012349
:100E500007F5965000F10800036007F5AC63012028
:100E6000194600F0DFFD07F5985101F11401086003
:100E700007F5AC630120194600F002FE07F5985211
:100E800002F1100210604BE014260000BC250000A7
:100E90005C260000A4260000AC260000B826000056
:100EA000C4260000D4260000E0260000EC26000046
:100EB00007F5AC6307F5965C0CF1040CDCF8000058
:100EC000194600F0AFFD07F5985101F114010860D3
:100ED00007F5AC6307F5965202F104021068194653
:100EE00000F0CEFD07F5985303F11003186007F5E5
:100EF000AC6107F5985C0CF1140CDCF8002013468B
:100F00009B0013445B0007F5985000F11000026845
:100F1000134451F8233007F5965101F108010B6095
:100F200007F50273183B07F5985C0CF1040CDCF82C
:100F3000002007F5965000F10800016843F82210E0
:100F400007F5985101F104010B68013307F5985238
:100F500002F104021360614801F08AF807F5965324
:100F600003F10803186801F00FF85D4801F080F8FC
:100F700007F54C73184607F5965C0CF1080CDCF885
:100F8000001000F019FD07F52A73183B184607F505
:100F9000965202F10802116800F0E4FC002307F504
:100FA000985CCCF8003007F54C73184600F0CCFF85
:100FB00007F59851086007F5AC6207F128031C3B60
:100FC0001046196807F5985303F114031A6807F5DA
:100FD000985C0CF1100CDCF8003000F07FFD07F598
:100FE000945101F1180108603E4801F041F80023D6
:100FF00007F5975202F11002136030E007F5975C95
:101000000CF1100CDCF800309B0007F5945000F157
:10101000180002681344196807F12803183B07F504
:10102000975C0CF1100CDCF8002043F8221007F15B
:101030002803183B07F5975000F11000026853F899
:101040002230184600F0A0FF07F5975101F110017A
:101050000B68013307F5975202F11002136007F590
:10106000975C0CF1100CDCF80030072BC6DD1E4835
:1010700000F0FEFF07F12803183B184600F064FF5C
:1010800007F596510860194800F0F2FF07F59652EF
:10109000106800F079FF124800F0EAFF07F128031A
:1010A000183B184600F050FF07F5975303F10C0367
:1010B00018600F4800F0DCFF07F5975C0CF10C0C92
:1010C000DCF8000000F060FF074800F0D1FF0023CB
:1010D00007F5975000F11C00036083E3F026000041
:1010E000EC260000FC260000BC25000004270000C0
:1010F00018270000A74800F0BBFF07F5985101F141
:101100001801086800F040FFA34800F0B1FF07F5A0
:10111000985202F118021368013307F5985C0CF13C
:10112000180CCCF8003007F12803183B07F597504E
:1011300000F11C00026853F8223007F5945101F1C8
:1011400014010B60954800F093FF07F5945202F1EB
:101150001402106800F018FF8F4800F089FF07F5AF
:101160002A73183B184607F5945303F114031968C2
:1011700000F072FE07F5955C0CF11C0CCCF8000039
:10118000874800F075FF07F5955101F11C010868CB
:1011900000F0FAFE804800F06BFF07F5AC6307F53E
:1011A000945202F114021068194600F03BFC07F556
:1011B000945303F11003186007F5AC6307F5945CD2
:1011C0000CF1140CDCF80000194600F059FC07F58E
:1011D000945101F10C010860724800F049FF07F5D5
:1011E000F26107F5945303F10C031A6807F5945C58
:1011F0000CF1100CDCF800001346DB009B1A9B007E
:101200004FF48C7202FB00F213440B4418331B683A
:10121000184600F0B9FE604800F02AFF07F5955027
:1012200000F11C000368002B40F0D08207F5AC638E
:1012300007F5965101F108010868194600F0F2FB24
:1012400007F5945202F10802106007F5AC6307F548
:10125000965C0CF1080CDCF80000194600F010FC5C
:1012600007F5945101F10401086007F5AC6307F537
:10127000945202F114021068194600F0D3FB07F5EE
:10128000945303F11003186007F5AC6307F5945C01
:101290000CF1140CDCF80000194600F0F1FB07F526
:1012A000945101F10C01086007F5945202F110020B
:1012B000106807F5945303F10C03196807F5945C63
:1012C0000CF1080CDCF8002007F5945C0CF1040C20
:1012D000DCF8003000F0E4FD07F59451086007F5F4
:1012E000F26107F5945303F104031A6807F5945C5F
:1012F0000CF1080CDCF800001346DB009B1A9B0085
:101300004FF48C7202FB00F213440B4408331A684A
:1013100007F594500368134407F5955101F1100146
:101320000B60002307F5965202F10C0213601EE0D9
:1013300007F54C7307F5965C0CF10C0CDCF80020FB
:1013400053F8221007F1C803183B07F5965000F137
:101350000C00026843F8221007F5965101F10C01C8
:101360000B68013307F5965202F10C02136007F582
:10137000965C0CF10C0CDCF80030092BD8DD0A4827
:1013800000F076FE002307F5965000F11800036088
:1013900025E000BF24270000BC2500003427000002
:1013A00040270000502700006827000007F1C8030D
:1013B000183B07F5965101F118010A6853F82230DD
:1013C000184600F0E1FD07F5965202F11802136885
:1013D000013307F5965C0CF1180CCCF8003007F5DA
:1013E000965000F118000368272BDFDD664800F0F7
:1013F0003FFE07F54C73184607F5945202F11402AC
:10140000116800F029FD07F5955303F118031860E2
:101410005E4800F02DFE07F5955C0CF1180CDCF829
:10142000000000F0B1FD584800F022FE07F595508D
:1014300000F118000368002B64D1554800F018FE35
:1014400007F5945101F11401086800F09DFD07F5BE
:101450004C73184607F5945202F11402116800F01B
:1014600081FA4C4800F004FE07F59953186800F023
:101470008BFD07F5995CDCF80030013307F59950D6
:101480000360454800F0F4FD002307F5965101F193
:1014900014010B6017E007F54C7307F5965C0CF12F
:1014A000140CDCF8002053F82230184600F06CFDD4
:1014B00007F5965000F114000368013307F59651C3
:1014C00001F114010B6007F5965202F11402136842
:1014D000272BE0DD2C4800F0CBFD07F54C731846B8
:1014E00000F032FD07F5985318602C4800F0C0FD5D
:1014F00007F5985CDCF8000000F046FD224800F09B
:10150000B7FD4FE007F5F26107F5945000F10C00CC
:10151000026807F5945303F1100318681346DB00C3
:101520009B1A9B004FF48C7202FB00F213440B4495
:1015300008331A6807F5955C0CF1100CDCF80030E4
:101540009A422FDC164800F093FD07F5995101F1FE
:101550000401086800F018FD07F5995202F1040231
:101560001368013307F5995C0CF1040CCCF80030DA
:1015700007F5975000F11C000368013307F59751F8
:1015800001F11C010B602DE1BC250000702700005B
:1015900034270000802700008827000098270000DB
:1015A000AC27000007F5F26107F5945303F10C0333
:1015B0001A6807F5945C0CF1100CDCF80000134677
:1015C000DB009B1A9B004FF48C7202FB00F2134469
:1015D0000B44083307F5955000F1100002681A60BB
:1015E00007F10803083B07F5945101F11001086861
:1015F00007F5945202F10C0211681A6807F5995C1C
:101600000CF1180CDCF8003000F04AFC014607F53C
:10161000F26007F5945303F10C031A6807F5945C24
:101620000CF1100CDCF800401346DB009B1A9B0009
:101630004FF48C7202FB04F213440344596007F127
:101640000803083B07F5945101F11001086807F5FC
:10165000945202F10C0211681A6807F5995C0CF1BA
:10166000180CDCF8003000F053FC014607F5F2607E
:1016700007F5945303F10C031A6807F5945C0CF119
:10168000100CDCF800401346DB009B1A9B004FF463
:101690008C7202FB04F2134403441033196007F503
:1016A000F26107F5945000F10C00026807F59453BD
:1016B00003F1100318681346DB009B1A9B004FF4DC
:1016C0008C7202FB00F213440B440833196807F5CF
:1016D000F26007F5945C0CF10C0CDCF8002007F5C7
:1016E000945303F110031C681346DB009B1A9B0004
:1016F0004FF48C7202FB04F2134403445B681944F8
:1017000007F5F26007F5945C0CF10C0CDCF8002096
:1017100007F5945303F110031C681346DB009B1A72
:101720009B004FF48C7202FB04F213440344083311
:10173000596007F5F26107F5945C0CF10C0CDCF8CC
:10174000002007F5945303F1100318681346DB00DB
:101750009B1A9B004FF48C7202FB00F213440B4463
:10176000103307F5965C0CF1080CDCF800205A6089
:1017700007F5DE6307F5975000F10800026807F5EA
:10178000965C0CF1080CDCF8001043F8221007F10D
:101790002803183B184600F0D7FB07F5975101F1D5
:1017A0000C010860664800F063FC07F5975202F1EF
:1017B0000C02106800F0E8FB624800F059FC07F5E5
:1017C000975303F11C03186800F0DEFB07F5975CE4
:1017D0000CF11C0CDCF80030013307F5975000F1D8
:1017E0001C00036007F5975101F11C010A6807F519
:1017F000975C0CF10C0CDCF800309A42FFF67AACE6
:1018000007F5975000F108000368013307F5975179
:1018100001F108010B6007F10803083B07F5985C2C
:101820000CF1140CDCF800201B689A420FD107F56C
:10183000985000F11000026807F5995101F1180164
:101840000B689A4203D1404800F012FC46E03F4842
:1018500000F00EFC07F54C73184600F075FB07F519
:10186000985210603A4800F003FC07F59853186846
:1018700000F08AFB374800F0FBFB002307F5965C7D
:101880000CF1100CCCF8003016E007F54C7307F59E
:10189000965000F11000026853F82230184600F00C
:1018A00073FB07F5965101F110010B68013307F541
:1018B000965202F11002136007F5965C0CF1100CC1
:1018C000DCF80030272BE0DD234800F0D1FB00BF1F
:1018D00007F598500368002B3FF7A3A8002307F5EE
:1018E00097510B6016E007F5DE6307F5975CDCF8AF
:1018F000002053F8221007F5B473183B07F59750F2
:10190000026843F8221007F597510B68013307F579
:101910009752136007F5975CDCF80030272BE2DD67
:101920000E4800F0A5FB0E4800F0A2FB07F5B473CB
:10193000183B184607F599570C37BD4690BD00BFB8
:10194000B8270000C8270000D4270000E0270000C7
:10195000F027000068270000BC250000FC270000DD
:101960000428000080B487B000AF7860396000239D
:101970007B6100233B6100237B610EE07B699B0060
:101980007A6813441B68FB60FB68002B02D03B693C
:1019900001333B617B6901337B617B69272BEDDD83
:1019A0003B699B007A6813443A681A601C37BD464D
:1019B0005DF8047B704700BF80B485B000AF7860ED
:1019C00039600023FB600CE0FB689B007A681344DD
:1019D0001A683B689A4201D1FB68BB60FB6801331F
:1019E000FB60FB68272BEFDDBB68FB600DE0FB684D
:1019F0009B007A681344FA680132920079680A44BD
:101A000012681A60FB680133FB60FB68262BEEDD71
:101A10007B68A03300221A601437BD465DF8047B52
:101A2000704700BF80B487B000AF78603960002392
:101A3000FB6000237B611AE000233B6111E07A69BF
:101A400013469B001344DB003A6813443A6953F889
:101A500022207B689A4201D17B690BE03B6901330C
:101A60003B613B69092BEADD7B6901337B617B6963
:101A7000092BE1DD18461C37BD465DF8047B704735
:101A800080B487B000AF786039600023FB6000232A
:101A90007B611AE000233B6111E07A6913469B00E9
:101AA0001344DB003A6813443A6953F822207B68F8
:101AB0009A4201D13B690BE03B6901333B613B69D1
:101AC000092BEADD7B6901337B617B69092BE1DD51
:101AD00018461C37BD465DF8047B704780B5B0B032
:101AE00000AFF860B9607A603B600023C7F8B4309B
:101AF00007F11402A023104600211A4600F03CFD15
:101B00000023C7F8BC309CE10023C7F8B8308EE151
:101B1000D7F8BC207B689A4240F08481D7F8B8207F
:101B20003B689A4240F07E81D7F8BC30002B40F0F1
:101B3000D580D7F8B830002B53D1D7F8BC305A1C19
:101B400013469B001344DB00BA681344D7F8B8204F
:101B500053F82230002B19D1D7F8BC305A1C134649
:101B60009B001344DB00FA681344D7F8B82053F8FD
:101B70002220D7F8B4309B0007F1C0010B4443F892
:101B8000AC2CD7F8B4300133C7F8B430D7F8BC2048
:101B900013469B001344DB00BA681344D7F8B820FF
:101BA000013253F82230002B40F03C81D7F8BC20A2
:101BB00013469B001344DB00FA681344D7F8B8209F
:101BC000013253F82220D7F8B4309B0007F1C0014E
:101BD0000B4443F8AC2CD7F8B4300133C7F8B43019
:101BE00020E1D7F8BC2013469B001344DB00BA6801
:101BF0001344D7F8B820013253F82230002B19D102
:101C0000D7F8BC2013469B001344DB00FA6813444A
:101C1000D7F8B820013253F82220D7F8B4309B000F
:101C200007F1C0010B4443F8AC2CD7F8B4300133B2
:101C3000C7F8B430D7F8BC2013469B001344DB0030
:101C4000BA681344D7F8B820013A53F82230002B71
:101C500019D1D7F8BC2013469B001344DB00FA6867
:101C60001344D7F8B820013A53F82220D7F8B430FB
:101C70009B0007F1C0010B4443F8AC2CD7F8B430FB
:101C80000133C7F8B430D7F8BC305A1C13469B0058
:101C90001344DB00BA681344D7F8B82053F8223055
:101CA000002B40F0BF80D7F8BC305A1C13469B0075
:101CB0001344DB00FA681344D7F8B82053F8222005
:101CC000D7F8B4309B0007F1C0010B4443F8AC2CAB
:101CD000D7F8B4300133C7F8B430A3E0D7F8BC204C
:101CE00013469B001344DB00BA681344D7F8B820AE
:101CF000013253F82230002B19D1D7F8BC201346FB
:101D00009B001344DB00FA681344D7F8B820013273
:101D100053F82220D7F8B4309B0007F1C0010B44E0
:101D200043F8AC2CD7F8B4300133C7F8B430D7F847
:101D3000BC2013469B001344DB00BA681344D7F859
:101D4000B820013A53F82230002B19D1D7F8BC2023
:101D500013469B001344DB00FA681344D7F8B820FD
:101D6000013A53F82220D7F8B4309B0007F1C001A4
:101D70000B4443F8AC2CD7F8B4300133C7F8B43077
:101D8000D7F8BC305A1C13469B001344DB00BA68DA
:101D90001344D7F8B82053F82230002B19D1D7F8C4
:101DA000BC305A1C13469B001344DB00FA681344F2
:101DB000D7F8B82053F82220D7F8B4309B0007F1A9
:101DC000C0010B4443F8AC2CD7F8B4300133C7F84A
:101DD000B430D7F8BC2013469B001344DB00283BEB
:101DE000BA681344D7F8B82053F82230002B19D121
:101DF000D7F8BC2013469B001344DB00283BFA684D
:101E00001344D7F8B82053F82220D7F8B4309B00F9
:101E100007F1C0010B4443F8AC2CD7F8B4300133C0
:101E2000C7F8B430D7F8B8300133C7F8B830D7F8AE
:101E3000B830092B7FF76CAED7F8BC300133C7F848
:101E4000BC30D7F8BC30092B7FF75EAE07F1140326
:101E50001846C037BD4680BD80B485B000AF7860FD
:101E600039600023FB600CE0FB689B007A68134438
:101E70001A683B689A4201D10123BB60FB680133B9
:101E8000FB60FB68272BEFDDBB68012B01D1012331
:101E900000E0002318461437BD465DF8047B704708
:101EA00090B587B000AFF860B9607A603B607A683F
:101EB000FB68D31A184600F063FB04463A68BB6817
:101EC000D31A184600F05CFB034623447B617B6910
:101ED00018461C37BD4690BD90B587B000AFF8607E
:101EE000B9607A603B60FA687B68D31A184600F0E4
:101EF00047FB0446BA683B68D31A184600F040FB1B
:101F0000034623447B617B6918461C37BD4690BD60
:101F100090B587B000AFF860B9607A603B607A68CE
:101F2000FB68D31A184600F02BFB04463A68BB68DE
:101F3000D31A184600F024FB034623447B617B69D7
:101F400018461C37BD4690BD80B485B000AF7860A0
:101F50000023BB600023FB600CE0FB689B007A68F9
:101F600013441B68002B02D0BB680133BB60FB68C5
:101F70000133FB60FB68272BEFDDBB681846143785
:101F8000BD465DF8047B704780B588B000AF7860CF
:101F90007B68344A82FB03129211DB17D31AFB6170
:101FA0007B68304A82FB03129111DA178A1A4FF4C8
:101FB0007A7101FB02F29B1ABB61BB692A4A82FB60
:101FC00003125211DB17D31A7B61BB69264A82FBCD
:101FD00003125111DA178A1A642101FB02F29B1ACB
:101FE0003B613B69214A82FB03129210DB17D31A33
:101FF000FB603A691D4B83FB02139910D317C91A72
:102000000B469B000B445B00D31ABB60FB69DBB241
:102010003033DBB2184600F027FA7B69DBB230338D
:10202000DBB2184600F020FAFB68DBB23033DBB2DB
:10203000184600F019FABB68DBB23033DBB2184641
:1020400000F012FA202000F00FFA202000F00CFA25
:10205000202000F009FA202000F006FA2037BD46C3
:1020600080BD00BFD34D62101F85EB516766666669
:1020700080B582B000AF786007E07B681B781846B7
:1020800000F0F2F97B6801337B607B681B78002BE2
:10209000F3D10837BD4680BD80B400AF044B0022A9
:1020A0009A60044B01221A60BD465DF8047B7047BC
:1020B00000C0024020C0092080B485B000AF786025
:1020C0000023FB6002E0FB680133FB60FA687B6879
:1020D0009A42F8DB1437BD465DF8047B704700BFB9
:1020E00080B5ADF5C36D02AF07F264431A464FF4F5
:1020F000C873104600211A4600F03EFA07F2644306
:102100000A221A6007F264430A225A6007F2644303
:102110000F229A6007F264430F22DA6007F26443E9
:1021200023221A6107F2644323225A6107F26443AF
:102130001E229A6107F264431E22DA6107F26443A9
:1021400014221A6207F2644314225A6207F26443AB
:102150000F229A6207F264430F22DA6207F26443A5
:102160001E221A6307F264431E225A6307F2644375
:1021700019229A6307F264431922DA6307F264436F
:102180000F221A6407F264430F225A6407F2644371
:102190000A229A6407F264430A22DA6407F264436B
:1021A00014221A6507F2644314225A6507F2644345
:1021B00019229A6507F264431922DA6507F5357327
:1021C0001A464FF4C873104600211A4600F0D4F99D
:1021D00007F5357305225A6007F5357305229A60B5
:1021E00007F5357305221A6107F535730A225A611E
:1021F00007F535730A229A6107F535730522DA610E
:1022000007F5357305221A6207F535730A225A62FB
:1022100007F535730A229A6207F535730522DA62EB
:1022200007F535730F221A6307F5357314225A63C5
:1022300007F5357314229A6307F535730F22DA63B5
:1022400007F535730F221A6407F5357314225A64A3
:1022500007F5357314229A6407F535730F22DA6493
:1022600007F5357314221A6507F5357319225A6577
:1022700007F5357319229A6507F535731422DA6567
:1022800007F5A2731A464FF4C873104600211A4688
:1022900000F072F907F5A27301229A6007F5A273A4
:1022A00001221A6407F5A2730122C3F8802007F502
:1022B000A2730122C3F88C2007F5A2730122C3F890
:1022C000B0201F23C7F804361B23C7F800360023AD
:1022D000C7F8FC3507F1A4031A46A02310460021D5
:1022E0001A4600F049F900F0D7F8FFF7D5FE4FF491
:1022F000165000F057F83B1D1A46A0231046002147
:102300001A4600F039F93B1D01221A603B1D0222DA
:102310005A600223C7F8F83507F5A2730522009228
:102320001846002100220623FDF7EAFFC7F8F4054E
:102330000023C7F80C3611E0D7F80C369B00D7F80D
:10234000F4251344196807F1A403D7F80C2643F8C1
:102350002210D7F80C360133C7F80C36D7F80C36F4
:10236000272BE9DD0E48FFF783FE0023C7F8083668
:102370000DE007F1A403D7F8082653F822301846D9
:10238000FFF702FED7F808360133C7F80836D7F84A
:102390000836272BEDDD0A2000F066F8BCE700BF09
:1023A0001428000080B485B000AF78602A4B1B6809
:1023B0009B08FB60294B294AD2F8C42042F0100246
:1023C000C3F8C420254B254AD2F8A82122F4407234
:1023D000C3F8A821214B214AD2F8A821C3F8A8218B
:1023E0001F4B1F4A126822F040421A601C4B1C4AC5
:1023F000126842F080421A60194B194A526822F062
:1024000003025A60164B164A526842F001025A60A3
:10241000144B83221A73134B20229A62FB68002B01
:1024200000DA0F331B111A467B6892FBF3F3BB6093
:102430000C4BBA68120AD2B21A710A4BBA68D2B2FD
:102440001A70084B03221A73064B07221A721437AC
:10245000BD465DF8047B70470000001000C00F40CF
:1024600000C002400000014080B483B000AF0346CA
:10247000FB7100BF074B1B7DDBB203F02003002B79
:10248000F8D0044BFA791A700C37BD465DF8047B1E
:10249000704700BF00000140344B2022C3F8A02148
:1024A0001946D1F8A021314B5006FAD50322C3F8C2
:1024B00004210022C3F8A821C3F8AC212C4A012032
:1024C000C3F80C01AA21C3F884205522C3F88C104C
:1024D000C3F88C20C3F88000C3F88C10C3F88C209C
:1024E000224AD2F888305901FAD50323C2F8803045
:1024F000AA23C2F88C305523C2F88C30D2F8881049
:102500001A4B11F0407FF9D02322C3F8A420AA214E
:1025100055220120C3F8AC10C3F8AC20C3F8A000CA
:10252000C3F8AC10C3F8AC20104AD2F8A8305B0551
:10253000FAD50323C2F8A030AA23C2F8AC30552341
:10254000C2F8AC30D2F8A810084B11F4407FF9D093
:10255000084AC3F8C4200022C3F8C8211A6822F42C
:10256000704242F480421A60704700BF00C00F40C2
:1025700063000500DE87280400F006B8FFF7B0BD51
:102580000028B8BF404270470346043AC0F00A80B2
:10259000C9B241EA012141EA0141043A43F8041B6E
:1025A000BFF4FBAF043200F00480013A99547FF489
:1025B000FCAF7047677269643A2000000A000000AF
:1025C0007768696C655F315F6C6F6F700000000049
:1025D0002867725F6E61765B677269645F695D5BD5
:1025E000677269645F6A5D2E66203C2067725F6E69
:1025F00061765B677269645F6977696E6E65725D4B
:102600005B677269645F6A77696E6E65725D2E667C
:10261000293A20002867725F6E61765B6772696491
:102620005F695D5B677269645F6A5D2E66203D3D30
:102630002067725F6E61765B677269645F69776954
:102640006E6E65725D5B677269645F6A77696E6EF4
:1026500065725D2E66293A20000000006966202818
:1026600067725F6E61765B677269645F695D5B6705
:102670007269645F6A5D2E67203E3D2067725F6EFF
:1026800061765B677269645F6977696E6E65725DBA
:102690005B677269645F6A77696E6E65725D2E67EB
:1026A000293A200056414C55453A2000677269642A
:1026B0005F693A2000000000677269645F6A3A202F
:1026C000000000006F70656E5F6C6973745B695D1C
:1026D0003A2000006F70656E5F6C6F6F703A00009B
:1026E00077696E6E65723A200000000020200000BD
:1026F00063757272656E743A200000006E5F6C6FD5
:102700006F7000006E5F6C656E6774685F6368650C
:10271000636B3A20000000006E5F6C656E67746842
:102720003A2000007768696C655F325F6C6F6F708C
:10273000000000006E65696768626F75723A20007C
:102740007365617263685F636C6F7365643A2000E0
:102750006E65696768626F75725F6F6E656F727ABA
:1027600065726F3A200000006F70656E3A000000DD
:102770007365617263685F6F70656E3A2000000078
:1027800069666C6F6F7000006F70656E5F69666C74
:102790006F6F703A000000006F70656E6C656E6759
:1027A00074685F696E69666C6F6F7000656C7365E5
:1027B00069666C6F6F7000006E656967686C656E46
:1027C0006774683A200000006E656967685F693A5F
:1027D00020000000627265616B6C6F6F700000001A
:1027E000636F6E74696E75656C6F6F7000000000CA
:1027F0006F70656E6C656E67746800000A200A2051
:102800000A0000002E2E2E46494E49534845442EBC
:0C2810002E2E0000783A000000E1F505D3
:00000001FF
