:10000000008000102B010000F5000000F700000048
:10001000F9000000FB000000FD000000F879FFEF90
:10002000000000000000000000000000FF000000D1
:1000300001010000000000000301000005010000B4
:100040000701000007010000070100000701000090
:100050000701000007010000070100000701000080
:1000600007010000070100004905000061080000C9
:10007000990B0000070100000701000007010000C4
:100080000701000007010000070100000701000050
:100090000701000007010000070100000701000040
:1000A0000701000007010000070100000701000030
:1000B0000701000007010000070100000701000020
:1000C00007010000070100000701000014220000E2
:1000D00000000010040000001422000000C00720EF
:1000E0000000000004000010D801000000C007203C
:1000F00000000000FEE7FEE7FEE7FEE7FEE7FEE7A2
:10010000FEE7FEE7FEE7FEE710B50023934203D2C9
:100110001C585C500433F9E710BD00238B4203D216
:1001200000221A500433F9E7704710B50C4C0D4B00
:100130009C4207D294E803000C3454F8042CFFF7D7
:10014000E3FFF4E7084B9C4205D294E80300FFF775
:10015000E4FF0834F6E701F097FE01F005FFFEE743
:10016000CC000000E4000000F4000000FFFFFFFFEF
:10017000FFFFFFFFFFFFFFFFFFFFFFFFFFFFFFFF8F
:10018000FFFFFFFFFFFFFFFFFFFFFFFFFFFFFFFF7F
:10019000FFFFFFFFFFFFFFFFFFFFFFFFFFFFFFFF6F
:1001A000FFFFFFFFFFFFFFFFFFFFFFFFFFFFFFFF5F
:1001B000FFFFFFFFFFFFFFFFFFFFFFFFFFFFFFFF4F
:1001C000FFFFFFFFFFFFFFFFFFFFFFFFFFFFFFFF3F
:1001D000FFFFFFFFFFFFFFFFFFFFFFFFFFFFFFFF2F
:1001E000FFFFFFFFFFFFFFFFFFFFFFFFFFFFFFFF1F
:1001F000FFFFFFFFFFFFFFFFFFFFFFFFFFFFFFFF0F
:10020000FFFFFFFFFFFFFFFFFFFFFFFFFFFFFFFFFE
:10021000FFFFFFFFFFFFFFFFFFFFFFFFFFFFFFFFEE
:10022000FFFFFFFFFFFFFFFFFFFFFFFFFFFFFFFFDE
:10023000FFFFFFFFFFFFFFFFFFFFFFFFFFFFFFFFCE
:10024000FFFFFFFFFFFFFFFFFFFFFFFFFFFFFFFFBE
:10025000FFFFFFFFFFFFFFFFFFFFFFFFFFFFFFFFAE
:10026000FFFFFFFFFFFFFFFFFFFFFFFFFFFFFFFF9E
:10027000FFFFFFFFFFFFFFFFFFFFFFFFFFFFFFFF8E
:10028000FFFFFFFFFFFFFFFFFFFFFFFFFFFFFFFF7E
:10029000FFFFFFFFFFFFFFFFFFFFFFFFFFFFFFFF6E
:1002A000FFFFFFFFFFFFFFFFFFFFFFFFFFFFFFFF5E
:1002B000FFFFFFFFFFFFFFFFFFFFFFFFFFFFFFFF4E
:1002C000FFFFFFFFFFFFFFFFFFFFFFFFFFFFFFFF3E
:1002D000FFFFFFFFFFFFFFFFFFFFFFFFFFFFFFFF2E
:1002E000FFFFFFFFFFFFFFFFFFFFFFFFFFFFFFFF1E
:1002F000FFFFFFFFFFFFFFFFFFFFFFFFFFFFFFFF0E
:1003000080B588B000AF78607B68344A82FB031206
:100310009211DB17D31AFB617B68304A82FB031210
:100320009111DA178A1A4FF47A7101FB02F29B1AC3
:10033000BB61BB692A4A82FB03125211DB17D31A35
:100340007B61BB69264A82FB03125111DA178A1AB4
:10035000642101FB02F29B1A3B613B69214A82FB4B
:1003600003129210DB17D31AFB603A691D4B83FB13
:1003700002139910D317C91A0B469B000B445B005C
:10038000D31ABB60FB69DBB23033DBB2184601F035
:100390006BFA7B69DBB23033DBB2184601F064FAEA
:1003A000FB68DBB23033DBB2184601F05DFABB68A4
:1003B000DBB23033DBB2184601F056FA202001F0F0
:1003C00053FA202001F050FA202001F04DFA2020AD
:1003D00001F04AFA2037BD4680BD00BFD34D621000
:1003E0001F85EB516766666680B582B000AF7860A6
:1003F00007E07B681B78184601F036FA7B6801330A
:100400007B607B681B78002BF3D10837BD4680BD2D
:1004100080B400AF044B00229A60044B01221A60A2
:10042000BD465DF8047B704700C0024020C0092033
:1004300080B485B000AFF860B9607A607B68002B4B
:1004400009D10D4BFA6853F82230BA68012101FA3C
:1004500002F2DA610BE07B68002B08D0064BFA68E9
:1004600053F82230BA68012101FA02F29A61143776
:10047000BD465DF8047B70476C21000080B485B0F8
:1004800000AFF860B9607A607B68002B0FD0124B28
:10049000FA6853F82230104AF96852F8212011689E
:1004A000BA68012000FA02F20A431A600FE00A4B10
:1004B000FA6853F82230084AF96852F82120116886
:1004C000BA68012000FA02F2D2430A401A601437D7
:1004D000BD465DF8047B70476C21000080B485B098
:1004E00000AF78600023FB600DE00023BB6002E0FA
:1004F000BB680133BB60BA6841F287339A42F7D9CF
:10050000FB680133FB60FA687B689A42EDD31437CD
:10051000BD465DF8047B704780B483B000AF0346EE
:10052000FB71084B97F907205209F97901F01F0177
:10053000012000FA01F143F822100C37BD465DF8A6
:10054000047B704700E100E080B483B000AFB24BA1
:1005500000221A60B14B5B68FB71FB79083B502BA2
:1005600000F26C8101A252F823F000BFB106000036
:100570003D0800003D0800003D0800003D08000067
:100580003D0800003D0800003D080000D3060000C3
:100590003D0800003D0800003D0800003D08000047
:1005A0003D0800003D0800003D080000F506000081
:1005B0003D0800003D0800003D0800003D08000027
:1005C0003D0800003D0800003D080000050800004F
:1005D0003D0800003D0800003D0800003D08000007
:1005E0003D0800003D0800003D080000270700000E
:1005F0003D0800003D0800003D0800003D080000E7
:100600003D0800003D0800003D0800006D070000A7
:100610003D0800003D0800003D0800003D080000C6
:100620003D0800003D0800003D0800003D080000B6
:100630003D0800003D0800003D0800003D080000A6
:100640003D0800003D0800003D0800008107000053
:100650003D0800003D0800003D0800003D08000086
:100660003D0800003D0800003D08000005080000AE
:100670003D0800003D0800003D0800003D08000066
:100680003D0800003D0800003D080000A5070000EF
:100690003D0800003D0800003D0800003D08000046
:1006A0003D0800003D0800003D080000DD07000097
:1006B0005B4B00221A60594A594B1B68581C584919
:1006C00008605849CB5CDBB29360544B28229A6196
:1006D000BBE0554B00221A60504A514B1B68581C16
:1006E0004F4908604F49CB5CDBB293604B4B2822EB
:1006F0009A61AAE04D4B1B68012B06D1474B102293
:100700001A604B4B07221A6009E0444A444B1B68AD
:10071000581C434908604349CB5CDBB293603F4BB4
:1007200008229A6191E0414B1A683D4B1B689A423E
:100730000AD93A4A3A4B1B68581C3949086039496A
:10074000CB5CDBB293600DE03A4B1B68002B03D00F
:10075000324B20221A6005E0304B10221A60344BD5
:100760000C221A602D4B08229A616EE02B4B10224E
:100770001A602F4B09221A60284B08229A6164E004
:10078000294B1B685A1C2B4B1B689A4203D2234BE4
:1007900004221A6002E0214B04229A611F4B0822B6
:1007A0009A6152E0204B1B68591C1F4A11601B4A7A
:1007B0009268D1B2204AD1541B4B1B685A1C1D4B66
:1007C0001B689A4203D2154B04221A6002E0134BB5
:1007D00004229A61114B08229A6136E0124B1B6881
:1007E000591C114A11600D4A9268D1B2124AD15473
:1007F0000F4B0C221A60094B10221A60074B08227B
:100800009A6122E0054B10221A60094B08221A60F7
:10081000024B08229A6118E01000001000C001404D
:10082000340000100C01001028000010CC01001052
:1008300004000010400000104C000010064B0A227B
:100840001A60064B08229A6100BF00BF0C37BD46F4
:100850005DF8047B704700BF0400001000C0014039
:1008600080B483B000AFB54B00225A60B44B5B68D4
:10087000FB71FB79083B502B00F27C8101A252F8FE
:1008800023F000BFC9090000750B0000750B0000C4
:10089000750B0000750B0000750B0000750B000058
:1008A000750B0000F5090000750B0000750B0000CA
:1008B000750B0000750B0000750B0000750B000038
:1008C000750B00001B0A0000750B0000750B000083
:1008D000750B0000750B0000750B0000750B000018
:1008E000750B0000610B0000750B0000750B00001C
:1008F000750B0000750B0000750B0000750B0000F8
:10090000750B0000510A0000750B0000750B00000C
:10091000750B0000750B0000750B0000750B0000D7
:10092000750B00009B0A0000750B0000750B0000A2
:10093000750B0000750B0000750B0000750B0000B7
:10094000750B0000750B0000750B0000750B0000A7
:10095000750B0000750B0000750B0000750B000097
:10096000750B0000AF0A0000750B0000750B00004E
:10097000750B0000750B0000750B0000750B000077
:10098000750B0000610B0000750B0000750B00007B
:10099000750B0000750B0000750B0000750B000057
:1009A000750B0000D30A0000750B0000750B0000EA
:1009B000750B0000750B0000750B0000750B000037
:1009C000750B00000F0B00005E4B00221A605E4B9F
:1009D00000221A605A4A5B4B1B68581C5949086030
:1009E0005A490B4493F84030DBB29360544B2822B1
:1009F0009A61C6E0544B00221A60514A514B1B6861
:100A0000581C5049086051490B4493F84030DBB200
:100A100093604B4B28229A61B3E04D4B5B68012BEE
:100A200006D1474B10221A604A4B07225A600BE04E
:100A3000434A444B1B68581C4249086043490B44D5
:100A400093F84030DBB293603D4B08229A6198E006
:100A50003F4B5A683B4B1B689A420CD9384A394B7A
:100A60001B68581C3749086038490B4493F84030DC
:100A7000DBB293600DE0384B5B68002B03D0304B4A
:100A800020221A6005E02E4B10221A60314B0C22F6
:100A90005A602B4B08229A6173E0294B10221A608E
:100AA0002C4B09225A60264B08229A6169E0264B9A
:100AB0001B685A1C284B5B689A4203D2204B0422C5
:100AC0001A6002E01E4B04229A611D4B08229A61B3
:100AD00057E01D4B1B68591C1B4A1160184A92684D
:100AE000D2B21E490B4483F84020174B1B685A1C96
:100AF000194B5B689A4203D2114B04221A6002E040
:100B00000F4B04229A610E4B08229A6139E00E4B7A
:100B10001B68591C0C4A1160094A9268D2B20F49ED
:100B20000B4483F840200B4B0C225A60044B1022DC
:100B30001A60034B08229A6123E000BF10000010E6
:100B400000C00540380000102C0000100C010010FF
:100B5000CC01001004000010400000104C000010F8
:100B60000B4B10221A600B4B08225A60084B0822CC
:100B70009A6106E0074B0A225A60054B08229A61E7
:100B800000BF00BF0C37BD465DF8047B704700BF57
:100B900000C005400400001080B483B000AFB34B28
:100BA00000229A60B24B5B68FB71FB79083B502BCB
:100BB00000F2788101A252F823F000BF010D00007D
:100BC000A50E0000A50E0000A50E0000A50E000059
:100BD000A50E0000A50E0000A50E0000270D0000C8
:100BE000A50E0000A50E0000A50E0000A50E000039
:100BF000A50E0000A50E0000A50E00004D0D000082
:100C0000A50E0000A50E0000A50E0000A50E000018
:100C1000A50E0000A50E0000A50E0000910E00001C
:100C2000A50E0000A50E0000A50E0000A50E0000F8
:100C3000A50E0000A50E0000A50E0000830D00000B
:100C4000A50E0000A50E0000A50E0000A50E0000D8
:100C5000A50E0000A50E0000A50E0000CD0D0000A1
:100C6000A50E0000A50E0000A50E0000A50E0000B8
:100C7000A50E0000A50E0000A50E0000A50E0000A8
:100C8000A50E0000A50E0000A50E0000A50E000098
:100C9000A50E0000A50E0000A50E0000E10D00004D
:100CA000A50E0000A50E0000A50E0000A50E000078
:100CB000A50E0000A50E0000A50E0000910E00007C
:100CC000A50E0000A50E0000A50E0000A50E000058
:100CD000A50E0000A50E0000A50E0000050E0000E8
:100CE000A50E0000A50E0000A50E0000A50E000038
:100CF000A50E0000A50E0000A50E0000410E00008C
:100D00005C4B00221A605A4A5A4B1B68581C5949BE
:100D1000086059490B4493F88030DBB29360544B20
:100D200028229A61C5E0554B00221A60504A514B67
:100D30001B68581C4F4908604F490B4493F880309A
:100D4000DBB293604A4B28229A61B2E04C4B9B681D
:100D5000012B06D1464B10221A604A4B07229A609B
:100D60000BE0434A434B1B68581C42490860424908
:100D70000B4493F88030DBB293603D4B08229A61BC
:100D800097E03F4B9A683B4B1B689A420CD9384A14
:100D9000384B1B68581C3749086037490B4493F897
:100DA0008030DBB293600DE0374B9B68002B03D0A3
:100DB0002F4B20221A6005E02D4B10221A60314B78
:100DC0000C229A602A4B08229A6172E0284B10226A
:100DD0001A602C4B09229A60254B08229A6168E020
:100DE000264B1B685A1C284B9B689A4203D2204B07
:100DF00004221A6002E01E4B04229A611C4B082256
:100E00009A6156E01D4B1B68591C1C4A1160184A18
:100E10009268D2B21D490B4483F88020174B1B689F
:100E20005A1C194B9B689A4203D2114B04221A6038
:100E300002E00F4B04229A610D4B08229A6138E0C0
:100E40000E4B1B68591C0D4A1160094A9268D2B2B8
:100E50000E490B4483F880200A4B0C229A60044B05
:100E600010221A60024B08229A6122E01000001042
:100E700000000A403C0000100C010010300000107F
:100E8000CC01001004000010400000104C000010C5
:100E90000B4B10221A600B4B08229A60084B082259
:100EA0009A6106E0074B0A229A60054B08229A6174
:100EB00000BF00BF0C37BD465DF8047B704700BF24
:100EC00000000A400400001080B485B000AF7860D4
:100ED0000023FB60174B7A68002143F82210164B61
:100EE0007A6853F8223020221A60144B7A6853F83B
:100EF0002230012B02D10123FB6013E00D4B7A68F5
:100F000053F822200E4B9A4202D90023FB6009E0DD
:100F1000084B7A6853F82230591C064B7A6843F81C
:100F20002210E2E7FB6818461437BD465DF8047BE3
:100F3000704700BF10000010802100000400001066
:100F4000FEFFFF0080B582B000AF78602E4B2E4AC6
:100F5000D2F8C42042F40022C3F8C4207B68002BDE
:100F60001DD12A4B294A126822F00F021A60274B22
:100F7000264A126842F00F021A60244B234A126C70
:100F800022F00F021A64214B204A126C42F00A022E
:100F90001A641E4B1D4A926E42F003029A667B68E9
:100FA000012B1DD1194B194A526822F470725A60F4
:100FB000164B164A526842F470725A60134B134A29
:100FC000526C22F470725A64104B104A526C42F404
:100FD00020725A640D4B0D4A926E42F4C0129A660A
:100FE0000B4B6C229A610A4B80225A61084B80227B
:100FF0001A610B20FFF790FA054B40221A6000BFE0
:101000000837BD4680BD00BF00C00F4000C0024091
:1010100000C0054080B483B000AF78601B4B7A6895
:1010200053F8223020221A60194B7A68062143F8BF
:10103000221015E0174B7A6853F82220164B9A427B
:1010400005D9134B7A680B2143F822100EE0114B9F
:101050007A6853F82230591C0E4B7A6843F82210F4
:101060000B4B7A6853F82230062BE3D0074B7A6893
:1010700053F8223020229A61054B7A6853F82230C7
:1010800018460C37BD465DF8047B70478021000090
:101090000400001010000010FEFFFF0080B5A0B09B
:1010A00000AF4FF4165000F07DFB0023FB664FF0BD
:1010B00000024FF00003C7E90A234FF000024FF08F
:1010C0000003C7E90C234FF000024FF00003C7E90B
:1010D00006234FF000024FF00003C7E908234FF04A
:1010E00000024FF00003C7E902234FF000024FF067
:1010F0000003C7E904230C23BB664FF07E537B66D5
:1011000000233B6000237B60C8233B66C823FB654C
:101110000023BB6501237B65DC233B65002387F847
:101120004F300023BB6400F0AFFEFFF771F900F011
:10113000B3FB0020FFF706FF0120FFF7C5FE0120EB
:10114000FFF768FF00F070F900F086F900F0BEF9D3
:1011500000237B644FF4165000F024FB0A20FFF7B5
:10116000BDF900F031FC0346FB6700F001FE0346C9
:101170003B6400F013FD0346FB63FA6F3B6E9A423B
:1011800002D300F0D3F9BCE0FA6F3B6E9A4218D854
:1011900000F000FAFA6B3B6C9A4202D3BB6D7B679E
:1011A00005E03A6CFB6B9A4201D37B6D7B677B6FEA
:1011B000002B14BF00230123DBB23B67786F00F0E4
:1011C000CDFA00F001FC0346FB67386F00F0D6FA59
:1011D0000346BB6713E000F0A9F900F0F5FB0346F6
:1011E000FB67386F00F0CAFA0346BB67FA6F3B6EC5
:1011F0009A420CD9BA6FFB6D9A4208D200BFFA6FBF
:101200003B6E9A4203D3BA6FFB6D9A42E3D9FA6FF1
:101210003B6E9A4203D9BA6FFB6D9A4263D300F0DA
:10122000B9F9BA6FFB6D9A4204D83848FFF7DCF879
:1012300000BF8FE7386F00F091FA00F0C5FB03465E
:10124000FB67386F00F09AFA0346BB6713E000F0C3
:101250006DF900F0B9FB0346FB67386F00F08EFABA
:101260000346BB67FA6F3B6E9A420CD9BA6FFB6DAF
:101270009A4208D200BFFA6F3B6E9A4203D3BA6F0C
:10128000FB6D9A42E3D9BA6FFB6D9A422BD300F003
:1012900081F9386F00F062FA1D48FFF7A5F800F0F9
:1012A00093FB0346FB670EE000F040F91948FFF797
:1012B0009BF800F089FB0346FB67FA6F3B6E9A428E
:1012C00000D804E000BFFA6F3B6E9A42ECD2FA6F8E
:1012D0003B6E9A4207D300F05DF9786F00F03EFA5A
:1012E0000D48FFF781F8BA6FFB6D9A4209D8FA6F83
:1012F0003B6E9A4205D8786F00F030FA0748FFF746
:1013000073F80A2000F0B0FA24E700BF982100002B
:10131000AC210000C0210000C8210000DC21000039
:1013200080B582B000AF02460B46FA71BB71194B13
:1013300000221A600BE0174B1B68174A1344002267
:1013400083F84020134B1B685A1C124B1A60114B38
:101350001B683F2BEFDD114B03225A60104B00221C
:101360005A600D4B322283F840200B4BFA7983F8F8
:101370004120094BBA7983F842200120FFF74AFE49
:101380000346002B01D0012300E000231846083754
:10139000BD4680BDD80100100C010010CC0100102A
:1013A0004000001080B582B000AF02460B46FA71D3
:1013B000BB71194B00221A600BE0174B1B68174AD0
:1013C0001344002283F84020134B1B685A1C124B15
:1013D0001A60114B1B683F2BEFDD114B03225A6043
:1013E000104B00225A600D4B3C2283F840200B4BDF
:1013F000FA7983F84120094BBA7983F84220012019
:10140000FFF708FE0346002B01D0012300E0002374
:1014100018460837BD4680BDD80100100C010010E9
:10142000CC0100104000001080B500AF20205721F3
:10143000FFF776FF23200821FFF772FF0020182115
:10144000FFF7B0FF01202021FFF7ACFF02200021B1
:10145000FFF7A8FF80BD00BF80B500AF01201721B6
:101460000122FFF70BF8012015210122FFF706F8F2
:10147000154B0022DA60012013210122FEF7FEFF46
:10148000012019210122FEF7F9FF0F4B0022DA603B
:1014900002200B210122FEF7F1FF02200C21012284
:1014A000FEF7ECFF084B00221A61002015210122F3
:1014B000FEF7E4FF002016210122FEF7DFFF024BBA
:1014C00000225A6080BD00BF00C0024080B400AF5F
:1014D000134B134A126842F080721A60114B0022BB
:1014E000DA60114B104A126842F400221A600D4B68
:1014F00000225A600A4B0A4A126842F000621A60DF
:10150000084B0022DA60064B054A126842F000528E
:101510001A60044B0022DA60BD465DF8047B704718
:1015200020C0092000C0024000C0092080B500AFE3
:10153000012015210122FEF77BFF01201721002247
:10154000FEF776FF012013210022FEF771FF012034
:1015500019210122FEF76CFF02200C210122FEF767
:1015600067FF02200B210022FEF762FF00201521F9
:101570000122FEF75DFF002016210022FEF758FF32
:101580000348FEF731FF0A20FEF7BAFE80BD00BF18
:10159000FC21000080B500AF012015210122FEF7DB
:1015A00047FF012017210122FEF742FF01201321EE
:1015B0000122FEF73DFF012019210122FEF738FF2D
:1015C00002200C210122FEF733FF02200B21012211
:1015D000FEF72EFF002015210122FEF729FF002033
:1015E00016210122FEF724FF0348FEF7FDFE40F618
:1015F000B830FEF773FF80BD0422000080B500AF55
:10160000012013210022FEF713FF012019210122DE
:10161000FEF70EFF02200C210122FEF709FF022037
:101620000B210022FEF704FF012015210122FEF705
:10163000FFFE012017210122FEF7FAFE00201521EE
:101640000122FEF7F5FE002016210122FEF7F0FE32
:101650004FF4F560FEF742FF012015210122FEF74D
:10166000E7FE012017210122FEF7E2FE01201321EF
:101670000122FEF7DDFE012019210122FEF7D8FE2E
:1016800002200C210122FEF7D3FE02200B210122B1
:10169000FEF7CEFE002015210122FEF7C9FE002034
:1016A00016210122FEF7C4FE80BD00BF80B500AF49
:1016B000012015210122FEF7BBFE01201721002287
:1016C000FEF7B6FE002015210122FEF7B1FE002034
:1016D00016210022FEF7ACFE012013210122FEF7A5
:1016E000A7FE012019210122FEF7A2FE02200C21F3
:1016F0000122FEF79DFE02200B210122FEF798FE3B
:1017000040F69800FEF7EAFE012015210122FEF7BF
:101710008FFE012017210122FEF78AFE01201321EE
:101720000122FEF785FE012019210122FEF780FE2D
:1017300002200C210122FEF77BFE02200B21012258
:10174000FEF776FE002015210122FEF771FE002033
:1017500016210122FEF76CFE80BD00BF80B582B06D
:1017600000AF78607B68002B02D1FFF747FF01E0F4
:10177000FFF79CFF0837BD4680BD00BF80B584B031
:1017800000AF78607B68012B03D100F0F1FAF860BC
:1017900002E000F003FAF860FB6818461037BD4617
:1017A00080BD00BF80B485B000AF78602A4B1B6855
:1017B0009B08FB60294B294AD2F8C42042F0100252
:1017C000C3F8C420254B254AD2F8A82122F4407240
:1017D000C3F8A821214B214AD2F8A821C3F8A82197
:1017E0001F4B1F4A126822F040421A601C4B1C4AD1
:1017F000126842F080421A60194B194A526822F06E
:1018000003025A60164B164A526842F001025A60AF
:10181000144B83221A73134B20229A62FB68002B0D
:1018200000DA0F331B111A467B6892FBF3F3BB609F
:101830000C4BBA68120AD2B21A710A4BBA68D2B209
:101840001A70084B03221A73064B07221A721437B8
:10185000BD465DF8047B70470000001000C00F40DB
:1018600000C002400000014080B483B000AF0346D6
:10187000FB7100BF074B1B7DDBB203F02003002B85
:10188000F8D0044BFA791A700C37BD465DF8047B2A
:10189000704700BF0000014080B400AF0B4B0B4A03
:1018A000D268DA60094B094A12691A61074B074A84
:1018B00012691A61064B064AD2F8C42042F00202AD
:1018C000C3F8C420BD465DF8047B704700C00240E9
:1018D00000C00F4080B483B000AF00237B600023C2
:1018E0007B600AE0354B5B6903F08053002B03D12A
:1018F0007B6801337B6000E003E07A68304B9A42FA
:10190000F0D97A682F4B9A4202D14FF6FF734EE01E
:101910004FF0402300229A604FF040234FF04022C6
:10192000526842F002025A604FF040234FF04022CA
:10193000526822F002025A604FF040234FF04022DA
:10194000526842F001025A6000237B6011E01B4B99
:101950005B6903F08053002B0AD04FF040239A6854
:10196000184B9A4200D908E07B6801337B6000E0A5
:1019700003E07A68124B9A42E9D97A68114B9A428D
:1019800002D14FF6FF7312E04FF040239B683B609B
:101990004FF040234FF0402252685A603A68094B9A
:1019A0009A4202D94FF6FE7301E03B685B08184685
:1019B0000C37BD465DF8047B704700BF20C009208E
:1019C000BF270900C027090080B582B000AF334BA4
:1019D000324AD2F8A82142F00C02C3F8A821304BB9
:1019E0002F4A126842F080621A600A2000F030FA32
:1019F0002B4B2B4A926942F080629A610F2000F0D3
:101A000027FA274B264AD26942F08062DA61142015
:101A100000F01EFA224B224A126822F080521A600D
:101A2000FFF758FF38603A684FF6FF739A4201D1CA
:101A300000232EE03A684FF6FE739A4214D13868BC
:101A400000F08CFB02460B46104619464FF0000290
:101A5000144B00F08BFA02460B461046194600F074
:101A60003BFB03467B6013E0386800F077FB0246DF
:101A70000B46104619464FF000020A4B00F076FA6A
:101A800002460B461046194600F026FB03467B60D3
:101A90007B6818460837BD4680BD00BF00C00F40B8
:101AA00020C0092000004D4080B483B000AF002367
:101AB0007B6000237B600AE0354B5B6903F4807335
:101AC000002B03D17B6801337B6000E003E07A6880
:101AD000304B9A42F0D97A682F4B9A4202D14FF696
:101AE000FF734EE04FF0402300229A604FF04023F6
:101AF0004FF04022526842F002025A604FF04023F9
:101B00004FF04022526822F002025A604FF0402308
:101B10004FF04022526842F001025A6000237B607D
:101B200011E01B4B5B6903F48073002B0AD04FF06C
:101B300040239A68184B9A4200D908E07B68013329
:101B40007B6000E003E07A68124B9A42E9D97A6838
:101B5000114B9A4202D14FF6FF7312E04FF040232F
:101B60009B683B604FF040234FF0402252685A6020
:101B70003A68094B9A4202D94FF6FE7301E03B687E
:101B80005B0818460C37BD465DF8047B704700BF04
:101B900040C00920BF270900C027090080B582B0D6
:101BA00000AF334B324AD2F8A82142F00C02C3F8FE
:101BB000A821304B2F4A126842F080021A600A2096
:101BC00000F046F92B4B2B4A926942F080029A6151
:101BD0000F2000F03DF9274B264AD26942F08002DF
:101BE000DA61142000F034F9224B224A126822F400
:101BF00080721A60FFF758FF38603A684FF6FF733B
:101C00009A4201D168232EE03A684FF6FE739A4259
:101C100014D1386800F0A2FA02460B461046194665
:101C20004FF00002144B00F0A1F902460B4610469B
:101C3000194600F051FA03467B6013E0386800F063
:101C40008DFA02460B46104619464FF000020A4B29
:101C500000F08CF902460B461046194600F03CFA9B
:101C600003467B607B6818460837BD4680BD00BFD1
:101C700000C00F4040C0092000004D4080B483B038
:101C800000AF00237B6000237B600AE0354B5B697B
:101C900003F00203002B03D17B6801337B6000E07B
:101CA00003E07A68304B9A42F0D97A682F4B9A4217
:101CB00002D14FF6FF734EE04FF0402300229A60AE
:101CC0004FF040234FF04022526842F002025A6027
:101CD0004FF040234FF04022526822F002025A6037
:101CE0004FF040234FF04022526842F001025A6008
:101CF00000237B6011E01B4B5B6903F00203002BA8
:101D00000AD04FF040239A68184B9A4200D908E055
:101D10007B6801337B6000E003E07A68124B9A42F3
:101D2000E9D97A68114B9A4202D14FF6FF7312E05B
:101D30004FF040239B683B604FF040234FF0402220
:101D400052685A603A68094B9A4202D94FF6FE73BC
:101D500001E03B685B0818460C37BD465DF8047B24
:101D6000704700BF40C00920BF270900C0270900F5
:101D700080B582B000AF334B324AD2F8A82142F08E
:101D80000C02C3F8A821304B2F4A126842F001021E
:101D90001A600A2000F05CF82B4B2B4A926942F043
:101DA00001029A610F2000F053F8274B264AD269AE
:101DB00042F00102DA61142000F04AF8224B224A74
:101DC000126822F002021A60FFF758FF38603A6882
:101DD0004FF6FF739A4201D168232EE03A684FF61E
:101DE000FE739A4214D1386800F0B8F902460B46E7
:101DF000104619464FF00002144B00F0B7F80246A7
:101E00000B461046194600F067F903467B6013E065
:101E1000386800F0A3F902460B46104619464FF009
:101E200000020A4B00F0A2F802460B461046194683
:101E300000F052F903467B607B6818460837BD46C0
:101E400080BD00BF00C00F4040C0092000004D40D1
:101E500080B485B000AF78600023FB600BE0002306
:101E6000BB6002E0BB680133BB60BB680E2BF9DDD1
:101E7000FB680133FB60FA687B689A42EFDB14373A
:101E8000BD465DF8047B7047344B2022C3F8A02187
:101E90001946D1F8A021314B5006FAD50322C3F8D8
:101EA00004210022C3F8A821C3F8AC212C4A012048
:101EB000C3F80C01AA21C3F884205522C3F88C1062
:101EC000C3F88C20C3F88000C3F88C10C3F88C20B2
:101ED000224AD2F888305901FAD50323C2F880305B
:101EE000AA23C2F88C305523C2F88C30D2F888105F
:101EF0001A4B11F0407FF9D02322C3F8A420AA2165
:101F000055220120C3F8AC10C3F8AC20C3F8A000E0
:101F1000C3F8AC10C3F8AC20104AD2F8A8305B0567
:101F2000FAD50323C2F8A030AA23C2F8AC30552357
:101F3000C2F8AC30D2F8A810084B11F4407FF9D0A9
:101F4000084AC3F8C4200022C3F8C8211A6822F442
:101F5000704242F480421A60704700BF00C00F40D8
:101F600063000500DE872804FFF798B82DE9F00F1D
:101F7000C1F30A5C82B00D461F46BCF1000F5AD077
:101F800040F2FF7AD44556D0C3F30A58B8F1000F97
:101F900051D0D0454FD0410D41EAC521530D4FEAF4
:101FA000C02B41F0004143EAC723CDF800B00191B6
:101FB00043F0004B4FEAC22ADDE90001594508BF52
:101FC0005045C8EB0C0C87EA050468D20CF2FD3CC6
:101FD0005FEA5B0B4FEA3A0A3423002200E0013B40
:101FE000594508BF50454FEA420205D3B0EB0A00FD
:101FF00061EB0B0142F00102001841EB0101202BC3
:1020000065D0002BEBD1594508BF504503D30132B1
:1020100008BF09F1010940F2FD718C4504F000434D
:1020200043D9BCF1000FA4BF43F0FF4343F4E003E6
:102030001946002026E06B0013F5001F20D87A0017
:1020400012F5001F1CD847EA0501C1F30A514FEAF7
:10205000415CD9B15C0D87EA0501640501F00045DA
:10206000D4B1540D640564B312F5001F23D113F5E8
:10207000001F4FF000001ABF29460020154901E05B
:102080001449002002B0BDE8F00F704711496046C6
:1020900002B0BDE8F00F704729462046F2E7490834
:1020A0004FEA30000CF2FE3C92E703EB0C5303EBDB
:1020B00009011046E6E745F0FF4545F4E001002040
:1020C000E0E745F0FF4545F4E0012046DAE79146B8
:1020D00085E700BF0000F87F10B40C0DC4F58364E1
:1020E0000634FF2C0CD901F1404000F58010B0F10E
:1020F000804F8CBF00206FF000005DF8044B7047EC
:10210000CB0243EA505040F00040E0405DF8044B01
:10211000704700BFF0B1030C0CBF000401F18071E7
:10212000030E0CBF000201F50001030F0CBF0001FC
:1021300001F58001830F0CBF800001F5001100281C
:10214000ACBF400001F5801101EBE02342051046D1
:102150001946704703461946704700BF10F000410A
:1021600018BF404201F18041FFF7D4BF00C00920F1
:1021700020C0092040C0092060C0092080C009207B
:1021800000C0014000C0054000000A4000C00140FE
:1021900000C0054000000A40636F6E74696E75658B
:1021A0005F657865637574656400000033726474FC
:1021B00075726E5F65786563757465640000000014
:1021C0007768696C653200003474687475726E5F8C
:1021D000657865637574656400000000636F726EF6
:1021E00065727475726E5F65786563757465640099
:1021F00000C0014000C0054000000A40636F756EDA
:10220000743A000073746F705F6578656375746508
:082210006400000000E1F50587
:00000001FF
