:10000000008000102B010000F5000000F700000048
:10001000F9000000FB000000FD000000F879FFEF90
:10002000000000000000000000000000FF000000D1
:1000300001010000000000000301000005010000B4
:100040000701000007010000070100000701000090
:100050000701000007010000070100000701000080
:100060000701000007010000070100000701000070
:100070000701000007010000070100000701000060
:100080000701000007010000070100000701000050
:100090000701000007010000070100000701000040
:1000A0000701000007010000070100000701000030
:1000B0000701000007010000070100000701000020
:1000C000070100000701000007010000300A0000DE
:1000D0000000001024030000300A000000C00720C8
:1000E00000000000240300100400000000C00720EE
:1000F00000000000FEE7FEE7FEE7FEE7FEE7FEE7A2
:10010000FEE7FEE7FEE7FEE710B50023934203D2C9
:100110001C585C500433F9E710BD00238B4203D216
:1001200000221A500433F9E7704710B50C4C0D4B00
:100130009C4207D294E803000C3454F8042CFFF7D7
:10014000E3FFF4E7084B9C4205D294E80300FFF775
:10015000E4FF0834F6E700F0F3FB00F061FCFEE793
:10016000CC000000E4000000F4000000FFFFFFFFEF
:10017000FFFFFFFFFFFFFFFFFFFFFFFFFFFFFFFF8F
:10018000FFFFFFFFFFFFFFFFFFFFFFFFFFFFFFFF7F
:10019000FFFFFFFFFFFFFFFFFFFFFFFFFFFFFFFF6F
:1001A000FFFFFFFFFFFFFFFFFFFFFFFFFFFFFFFF5F
:1001B000FFFFFFFFFFFFFFFFFFFFFFFFFFFFFFFF4F
:1001C000FFFFFFFFFFFFFFFFFFFFFFFFFFFFFFFF3F
:1001D000FFFFFFFFFFFFFFFFFFFFFFFFFFFFFFFF2F
:1001E000FFFFFFFFFFFFFFFFFFFFFFFFFFFFFFFF1F
:1001F000FFFFFFFFFFFFFFFFFFFFFFFFFFFFFFFF0F
:10020000FFFFFFFFFFFFFFFFFFFFFFFFFFFFFFFFFE
:10021000FFFFFFFFFFFFFFFFFFFFFFFFFFFFFFFFEE
:10022000FFFFFFFFFFFFFFFFFFFFFFFFFFFFFFFFDE
:10023000FFFFFFFFFFFFFFFFFFFFFFFFFFFFFFFFCE
:10024000FFFFFFFFFFFFFFFFFFFFFFFFFFFFFFFFBE
:10025000FFFFFFFFFFFFFFFFFFFFFFFFFFFFFFFFAE
:10026000FFFFFFFFFFFFFFFFFFFFFFFFFFFFFFFF9E
:10027000FFFFFFFFFFFFFFFFFFFFFFFFFFFFFFFF8E
:10028000FFFFFFFFFFFFFFFFFFFFFFFFFFFFFFFF7E
:10029000FFFFFFFFFFFFFFFFFFFFFFFFFFFFFFFF6E
:1002A000FFFFFFFFFFFFFFFFFFFFFFFFFFFFFFFF5E
:1002B000FFFFFFFFFFFFFFFFFFFFFFFFFFFFFFFF4E
:1002C000FFFFFFFFFFFFFFFFFFFFFFFFFFFFFFFF3E
:1002D000FFFFFFFFFFFFFFFFFFFFFFFFFFFFFFFF2E
:1002E000FFFFFFFFFFFFFFFFFFFFFFFFFFFFFFFF1E
:1002F000FFFFFFFFFFFFFFFFFFFFFFFFFFFFFFFF0E
:1003000080B588B000AF78607B68344A82FB031206
:100310009211DB17D31AFB617B68304A82FB031210
:100320009111DA178A1A4FF47A7101FB02F29B1AC3
:10033000BB61BB692A4A82FB03125211DB17D31A35
:100340007B61BB69264A82FB03125111DA178A1AB4
:10035000642101FB02F29B1A3B613B69214A82FB4B
:1003600003129210DB17D31AFB603A691D4B83FB13
:1003700002139910D317C91A0B469B000B445B005C
:10038000D31ABB60FB69DBB23033DBB2184600F036
:10039000BFFA7B69DBB23033DBB2184600F0B8FA43
:1003A000FB68DBB23033DBB2184600F0B1FABB6851
:1003B000DBB23033DBB2184600F0AAFA202000F09E
:1003C000A7FA202000F0A4FA202000F0A1FA2020B3
:1003D00000F09EFA2037BD4680BD00BFD34D6210AD
:1003E0001F85EB516766666680B582B000AF7860A6
:1003F00007E07B681B78184600F08AFA7B680133B7
:100400007B607B681B78002BF3D10837BD4680BD2D
:1004100080B400AF044B00229A60044B01221A60A2
:10042000BD465DF8047B704700C0024020C0092033
:1004300080B5A6B000AF1F23BB671B237B6700F00E
:100440007FFAFFF7E5FF4FF4165000F0FFF9CB48B5
:10045000FFF7CAFFCA4B00221A7011E0C84B1B7885
:100460001A46C84B53F822301846FFF749FF2020A0
:1004700000F04EFAC24B1B780133DAB2C04B1A704F
:10048000BF4B1B78312BE9D90A2000F041FA002339
:10049000C7F894308EE0BB4BD7F8942053F8222055
:1004A000D7F89430991CB74B53F821309A426CDD41
:1004B000B44BD7F8942053F82220D7F89430991CE5
:1004C000B04B53F82130D118AE4BD7F8942043F8F5
:1004D0002210D7F894309A1CAA4BD7F8941053F8EE
:1004E0002110D7F89430981CA64B53F82030C91A25
:1004F000A44B43F82210A34BD7F8942053F82220A2
:10050000D7F89430991C9F4B53F82130D11A9D4B4A
:10051000D7F8942043F82210D7F894305A1CD7F813
:100520009430591C974B53F82110D7F89430D81CAD
:10053000944B53F820301944924B43F82210D7F8CB
:100540009430DA1CD7F89430591C8E4B53F8211094
:10055000D7F89430D81C8B4B53F82030C91A894BEC
:1005600043F82210D7F894305A1CD7F89430591C0D
:10057000844B53F82110D7F89430D81C814B53F892
:100580002030C91A7F4B43F82210D7F89430DA1C78
:100590007D4B53F822107C4BD7F8942043F822105F
:1005A000D7F894300333C7F89430D7F89430013338
:1005B000C7F89430D7F89430632B7FF76CAF0023E3
:1005C000C7F8903089E0704BD7F8902053F822207C
:1005D000D7F89030191D6C4B53F821309A4272D1E4
:1005E000684BD7F8902053F82220D7F89030191D87
:1005F000644B53F821309A4265DD624BD7F8902066
:1006000053F822303B60D7F890305A1C5D4B53F8BA
:1006100022307B60D7F890309A1C5A4B53F8223026
:10062000BB60D7F89030DA1C564B53F82230FB6091
:10063000D7F890301A1D534B53F82210514BD7F86E
:10064000902043F82210D7F890305A1CD7F89030F9
:10065000591D4C4B53F821104A4B43F82210D7F840
:1006600090309A1CD7F89030991D464B53F82110C2
:10067000444B43F82210D7F89030DA1CD7F890306A
:10068000D91D404B53F821103E4B43F82210D7F8A8
:1006900090301A1D39683B4B43F82210D7F8903040
:1006A0005A1D7968374B43F82210D7F890309A1DBD
:1006B000B968344B43F82210D7F89030DA1DF96846
:1006C000304B43F82210D7F890300333C7F89030FE
:1006D000D7F890300133C7F89030D7F89030632BBB
:1006E0007FF771AF0023C7F884300023C7F880304C
:1006F0000023FB670023C7F8883098E00023C7F881
:100700008C3080E01F4BD7F8842053F82220D7F894
:1007100080309A423ADBD7F88430DA1C194B53F810
:100720002220D7F8803006339A422FDC164BD7F8B8
:10073000842053F82220FB6F9A4227DBD7F88430BD
:100740005A1C114B53F82220FB6F06339A421DDCD2
:10075000D7F8882013469B0013445B0007F19802EA
:100760001A44D7F88C301344883B01221A70D7F80A
:1007700084300433C7F884303BE000BF240A000013
:10078000240300100000001090010010BA6FD7F889
:1007900080309A421EDBD7F880305A1DBB6F9A42D8
:1007A00018DB7A6FFB6F9A4214DBFB6F9A1D7B6F2D
:1007B0009A420FDBD7F8882013469B0013445B0056
:1007C00007F198021A44D7F88C301344883B64220E
:1007D0001A700EE0D7F8882013469B0013445B0084
:1007E00007F198021A44D7F88C301344883B002252
:1007F0001A70D7F880300533C7F88030D7F88C30BE
:100800000133C7F88C30D7F88C30092B7FF77AAFDB
:10081000D7F88030322B02D10023C7F88030FB6F2D
:100820000533FB67D7F888300133C7F88830D7F82D
:100830008830092B7FF762AFFB6F322B01D1002389
:10084000FB670A2000F064F801E600BF80B485B0C1
:1008500000AF78602A4B1B689B08FB60294B294A34
:10086000D2F8C42042F01002C3F8C420254B254A18
:10087000D2F8A82122F44072C3F8A821214B214AC2
:10088000D2F8A821C3F8A8211F4B1F4A126822F0F2
:1008900040421A601C4B1C4A126842F080421A60A7
:1008A000194B194A526822F003025A60164B164A35
:1008B000526842F001025A60144B83221A73134BA0
:1008C00020229A62FB68002B00DA0F331B111A46B4
:1008D0007B6892FBF3F3BB600C4BBA68120AD2B28E
:1008E0001A710A4BBA68D2B21A70084B03221A73F3
:1008F000064B07221A721437BD465DF8047B704719
:100900002003001000C00F4000C002400000014062
:1009100080B483B000AF0346FB7100BF074B1B7D63
:10092000DBB203F02003002BF8D0044BFA791A70E5
:100930000C37BD465DF8047B704700BF00000140E6
:10094000344B2022C3F8A0211946D1F8A021314B05
:100950005006FAD50322C3F804210022C3F8A821C7
:10096000C3F8AC212C4A0120C3F80C01AA21C3F81A
:1009700084205522C3F88C10C3F88C20C3F8800063
:10098000C3F88C10C3F88C20224AD2F88830590161
:10099000FAD50323C2F88030AA23C2F88C3055233D
:1009A000C2F88C30D2F888101A4B11F0407FF9D081
:1009B0002322C3F8A420AA2155220120C3F8AC1099
:1009C000C3F8AC20C3F8A000C3F8AC10C3F8AC2047
:1009D000104AD2F8A8305B05FAD50323C2F8A0303C
:1009E000AA23C2F8AC305523C2F8AC30D2F8A81014
:1009F000084B11F4407FF9D0084AC3F8C420002204
:100A0000C3F8C8211A6822F4704242F480421A6086
:100A1000704700BF00C00F4063000500DE87280458
:100A2000FFF706BD786F726967696E616C3A000006
:100A30000A0000000A0000000F0000000F00000084
:100A400023000000230000001E0000001E00000024
:100A500014000000140000000F0000000F00000050
:100A60001E0000001E000000190000001900000018
:100A70000F0000000F0000000A0000000A00000044
:100A8000140000001400000019000000190000000C
:100A90000000000000000000000000000000000056
:100AA0000000000000000000000000000000000046
:100AB0000000000000000000000000000000000036
:100AC0000000000000000000000000000000000026
:100AD0000000000000000000000000000000000016
:100AE0000000000000000000000000000000000006
:100AF00000000000000000000000000000000000F6
:100B000000000000000000000000000000000000E5
:100B100000000000000000000000000000000000D5
:100B200000000000000000000000000000000000C5
:100B300000000000000000000000000000000000B5
:100B400000000000000000000000000000000000A5
:100B50000000000000000000000000000000000095
:100B60000000000000000000000000000000000085
:100B70000000000000000000000000000000000075
:100B80000000000000000000000000000000000065
:100B90000000000000000000000000000000000055
:100BA0000000000000000000000000000000000045
:100BB0000000000000000000000000000000000035
:100BC000000000000500000005000000000000001B
:100BD000050000000A0000000A00000005000000F7
:100BE000050000000A0000000A00000005000000E7
:100BF0000F00000014000000140000000F000000AF
:100C00000F00000014000000140000000F0000009E
:100C1000140000001900000019000000140000007A
:100C200000000000000000000000000000000000C4
:100C300000000000000000000000000000000000B4
:100C400000000000000000000000000000000000A4
:100C50000000000000000000000000000000000094
:100C60000000000000000000000000000000000084
:100C70000000000000000000000000000000000074
:100C80000000000000000000000000000000000064
:100C90000000000000000000000000000000000054
:100CA0000000000000000000000000000000000044
:100CB0000000000000000000000000000000000034
:100CC0000000000000000000000000000000000024
:100CD0000000000000000000000000000000000014
:100CE0000000000000000000000000000000000004
:100CF00000000000000000000000000000000000F4
:100D000000000000000000000000000000000000E3
:100D100000000000000000000000000000000000D3
:100D200000000000000000000000000000000000C3
:100D300000000000000000000000000000000000B3
:100D400000000000000000000000000000000000A3
:040D500000E1F505C4
:00000001FF
